:020000040800F2
:1000000060140020A9010008816300088D630008C6
:1000100099630008A5630008B163000800000000B0
:10002000000000000000000000000000C96300089C
:10003000BD63000800000000D5630008E16300080C
:10004000B5670008B9670008796800087D6800088E
:100050008168000885680008896800088D680008C4
:10006000916800089568000899680008BF010008B9
:10007000BF010008BF010008BF010008BF01000860
:10008000BF010008BF010008BF010008BD680008EB
:10009000C1680008C5680008C9680008CD68000884
:1000A000D1680008D5680008D9680008DD68000834
:1000B000E1680008E5680008E9680008ED680008E4
:1000C000F1680008F5680008F9680008FD68000894
:1000D0000169000805690008096900080D69000840
:1000E00011690008156900081969000800F002F894
:1000F00000F04BF80AA090E8000C82448344AAF177
:100100000107DA4501D100F040F8AFF2090EBAE874
:100110000F0013F0010F18BFFB1A43F0010318473B
:10012000E0A30000F0A300000A444FF0000C10F818
:10013000013B13F0070408BF10F8014B1D1108BF65
:1001400010F8015B641E05D010F8016B641E01F805
:10015000016BF9D113F0080F1EBF10F8014BAD1C55
:100160000C1B09D16D1E58BF01F801CBFAD505E073
:1001700014F8016B01F8016B6D1EF9D59142D6D3CD
:1001800070471FB51FBD10B510BD09F0F7FA114635
:10019000FFF7F7FF04F047FB09F015FB03B4FFF787
:1001A000F2FF03BC09F01AFB08480047FEE7FEE730
:1001B000FEE7FEE7FEE7FEE7FEE7FEE7FEE7FEE717
:1001C00003480449044A054B70470000ED0000084D
:1001D0006006002060140020600C0020600C0020ED
:1001E000FE48006805282BD9FC480068B0F5487F18
:1001F00026D2FB480078002822D1FA480068F74947
:10020000096888425DD3F8480068B0F5617F18D16D
:10021000F648006840F01000F4490860081F0068C4
:1002200040F00800091F08600120ED49087040F205
:100230002620EF4908600020EE490860EA4908607E
:100240000DE2E9480068B0F5167F18D1E74800686C
:1002500040F01000E5490860081F006840F0080001
:10026000091F08600120DE4908704FF4E170E04981
:1002700008600020DF490860DB490860EFE1DA48E8
:100280000068B0F5967F18D1D848006840F010009B
:10029000D6490860081F006840F00800091F086080
:1002A0000120CF4908704FF4AF70D1490860002099
:1002B000D0490860CC490860D1E10020CA490860F3
:1002C000CDE1C6480068C7490968401A6AD0C348EA
:1002D0000068C4490968401A052863D2C24800680A
:1002E000B0F5617F18D1C148006840F01000BF49E7
:1002F0000860081F006840F00800091F086001201E
:10030000B74908706E20BA4908600020B9490860F2
:100310004FF49670B4490860B3480068B0F5167F92
:1003200018D1B248006840F01000B0490860081FBA
:10033000006840F00800091F08600120A849087003
:100340002820AB4908600020AA4908604FF4967045
:10035000A5490860A4480068B0F5967F03D1A2487B
:100360000068A1490860A0480068002886D19F481D
:10037000001F006840F010009C49091F08600846F3
:10038000006840F008000860012095490870782056
:10039000974908600020974908604FF49670924989
:1003A00008605CE18D4800688E490968401A05289C
:1003B0006BD38A4800688B490968401A0A2864D2BE
:1003C00089480068B0F5617F18D18848006840F01E
:1003D000100086490860081F006840F00800091FE7
:1003E000086001207E4908703220814908600020A1
:1003F000804908604FF416707B4908607A480068AD
:10040000B0F5167F03D14FF416707749086076482F
:100410000068B0F5967F19D17448001F006840F05D
:1004200010007249091F08600846006840F0080083
:10043000086001206A49087046206D490860002064
:100440006C4908604FF41670674908606648006898
:100450000028A6D16548001F006840F010006349DD
:10046000091F08600846006840F008000860012085
:100470005B490870B4205E49086000205D4908604F
:100480004FF4167058490860E9E05448006855492F
:100490000968401A0A2870D3504800685149096811
:1004A000401A0F2869D250480068B0F5617F03D127
:1004B0004FF461704C4908604B480068B0F5167FF6
:1004C0001AD14A48001F006840F010004749091F30
:1004D00008600846006840F00800086001204049B4
:1004E00008704FF4AF70424908600020414908602D
:1004F0004FF461703C4908603B480068B0F5967F56
:100500001AD13A48001F006840F010003749091F0F
:1005100008600846006840F0080008600120304983
:1005200008704FF4E17032490860002031490860DA
:100530004FF461702C4908602B48006800281AD1DC
:100540002A48001F006840F010002849091F086071
:100550000846006840F00800086001202049087043
:1005600040F22620224908600020224908604FF40A
:1005700061701D49086072E0FFE71B480068B0F534
:10058000167F1BD14FF46170174908601748001F90
:10059000006840F010001549091F0860084600680F
:1005A00040F00800086001200D4908704FF4AF705A
:1005B0000F49086000200F49086050E00A480068B1
:1005C000B0F5967F2AD14FF461700749086007485B
:1005D000001F006840F0100004490DE0C400002036
:1005E0002D010020C0000020D00000201408014090
:1005F0003801002028010020091F08600846006813
:1006000040F0080008600120FE4908704FF4E170D6
:10061000FD4908600020FD49086020E0FC480068B2
:10062000C8B94FF46170FA490860FA48006840F0B0
:100630001000F84908600846006840F008000860AB
:100640000120F049087040F22620EF4908600020A0
:10065000EE49086003E04FF46170ED4908607047AF
:10066000ED4909680A22B1FBF2F0EC4909688142C0
:100670001CD2EA490968322918D3E94909780129C5
:1006800014D0E8490978012910D0E4490968B1F586
:100690004D7F0BD2DF49096841F48071DD4A11605A
:1006A0000121E14A1170E14A11700CE0D949091D9C
:1006B000096841F48071D74A121D11600021DA4A9D
:1006C0001170DA4A11707047D94A117801EBD17272
:1006D0005210A1EB4202002A7ED1D649D64A1278A6
:1006E00001EB02118A68D4490978491ED14B03EB0A
:1006F000011189688A427ED91946CF4A127801EBE6
:1007000002118A68CC490978491E03EB01118968F6
:10071000511A01EB810149001A46C74B1B7802EBC5
:10072000031212685200B1FBF2F1C44A1160C449CD
:100730000968012202EB4101C04A12685143BE4AD6
:100740001278521EBB4B03EB0212926802EB82023C
:1007500001EB4200B8490978491E1A4602EB011123
:10076000896801EB8101B74A1268B2EB410F19D8D1
:10077000B1490978491E1A4602EB0111896801EB5B
:1007800081014900AF4A1160AD490968012202EBBD
:100790004102AC490968A94B1B6803FB0211A94A35
:1007A000116024E0A349A44A127801EB0211896880
:1007B00001EB8101A34A1268B2EB410F11D39D49AD
:1007C0009D4A127801EB0211896801EB8101490011
:1007D0009C4A1160002101E085E00CE0974A11601D
:1007E00005E098490968814201D2964908600121D3
:1007F000954A117085E090490978491E8D4A02EBAF
:10080000011189688C4B1B7802EB03129268891ADC
:1008100001EB81014A008749874B1B7801EB0311EB
:1008200009684900B2FBF1F1844A11608449096802
:10083000012202EB4101814A126851437E4A12783B
:10084000521E7C4B03EB0212926802EB8202C1EB58
:10085000420079490978491E1A4602EB011189685C
:1008600001EB8101774A1268B2EB410F19D372494B
:100870000978491E1A4602EB0111896801EB8101D2
:100880004900704A11606E490968012202EB410279
:100890006C490968694B1B6803FB1211694A1160B6
:1008A0001DE06449644A127801EB0211896801EB8A
:1008B0008101644A1268B2EB410F0ED85D495E4A6D
:1008C000127801EB0211896801EB810149005D4A50
:1008D00011600021594A116001E05A490860002165
:1008E000594A11700DE05349534A127801EB021135
:1008F000896801EB81014900524A116000214F4A89
:10090000116070474A4A117801EBD1725210A1EB85
:100910004202002A74D14749474A127801EB02117A
:100920004A6845490978491E424B03EB0111496861
:100930008A4266D91946404A127801EB02114A6888
:100940003D490978491E03EB01114968511A01EB31
:10095000810149001A46384B1B7802EB03121268DA
:100960005200B1FBF2F1394A1160354909680122A0
:1009700002EB4101354A126851432F4A1278521E48
:100980002C4B03EB0212526802EB820201EB420095
:1009900029490978491E1A4602EB0111496801EB01
:1009A00081011D4A1268B2EB410F19D8224909781A
:1009B000491E1A4602EB0111496801EB8101490009
:1009C000154A11601E490968012202EB41021249D1
:1009D00009681E4B1B6803FB02110F4A11604AE0B5
:1009E0001449154A127801EB0211496801EB8101A3
:1009F000094A1268B2EB410F37D30E490E4A27E07D
:100A0000B5E03CE02D010020380100202801002045
:100A1000D0000020100801403C0000202C000020E5
:100A2000B2000020B00000201C0100201D010020A9
:100A3000A400002054030020A5000020480000204E
:100A40002000002040000020A100002044000020E1
:100A5000127801EB0211496801EB81014900FE4A5D
:100A600011600021FD4A116005E0FB4909688142DF
:100A700001D2F94908600121F94A117085E0F9496C
:100A80000978491EF84A02EB01114968F54B1B78B9
:100A900002EB03125268891A01EB81014A00F24904
:100AA000F04B1B7801EB031109684900B2FBF1F12F
:100AB000EA4A1160ED490968012202EB4101E74A67
:100AC00012685143E74A1278521EE74B03EB0212B9
:100AD000526802EB8202C1EB4200E2490978491EEA
:100AE0001A4602EB0111496801EB8101DA4A1268EA
:100AF000B2EB410F19D3DB490978491E1A4602EBC4
:100B00000111496801EB81014900D34A1160D749BD
:100B10000968012202EB4102CF490968CF4B1B68EB
:100B200003FB1211CC4A11601DE0CF49CD4A127867
:100B300001EB0211496801EB8101C74A1268B2EB6F
:100B4000410F0ED8C849C74A127801EB0211496813
:100B500001EB81014900C04A11600021BF4A1160C8
:100B600001E0BD4908600021BD4A11700DE0BE4999
:100B7000BC4A127801EB0211496801EB810149007E
:100B8000B54A11600021B54A1160704710B50020C8
:100B900011E0B749095C0A2291FBF2F2B449095C01
:100BA0000A2391FBF3F403FB141162F31F11B04A03
:100BB0001154411CC8B20528EBDB0020B9E0AD4957
:100BC00001EB001109686422B1FBF2F10902A94AA4
:100BD00002EB001212686423B2FBF3F403FB14224D
:100BE0000A23B2FBF3F201EB0211A24A02EB00125C
:100BF0001268B2FBF3F403FB142202F00F0211445B
:100C00009C4A02EB001211609A4901EB001109782D
:100C1000984A02EB00121160964901EB00114968F5
:100C20006422B1FBF2F10902924A02EB001252680F
:100C30006423B2FBF3F403FB14220A23B2FBF3F2A6
:100C400001EB02118B4A02EB00125268B2FBF3F483
:100C500003FB142202F00F021144864A02EB001239
:100C60005160844901EB00118988C1F30B01814A6D
:100C700002EB001251607F4901EB00118968642288
:100C8000B1FBF2F109027B4A02EB00129268642385
:100C9000B2FBF3F403FB14220A23B2FBF3F201EBE1
:100CA0000211744A02EB00129268B2FBF3F403FBE8
:100CB000142202F00F0211446E4A02EB00129160FE
:100CC0006C4901EB00110989C1F30B01694A02EB80
:100CD00000129160674901EB0011C9686422B1FB01
:100CE000F2F10902634A02EB0012D2686423B2FBFC
:100CF000F3F403FB14220A23B2FBF3F201EB02111B
:100D00005C4A02EB0012D268B2FBF3F403FB14223C
:100D100002F00F021144574A02EB0012D16055490C
:100D200001EB0011097B534A02EB0012D160411C18
:100D3000C8B20A28FFF643AF4F4949696422B1FBA4
:100D4000F2F109024C4A52696423B2FBF3F403FB4B
:100D500014220A23B2FBF3F201EB0211464A526954
:100D6000B2FBF3F403FB142202F00F021144424AD7
:100D700051611146898AC1F30B0151613F490978DC
:100D800039B3012949D0032964D13D490978F9B91A
:100D90003C490978491CC8B218E0AA21354A02EB3F
:100DA0000012116040F6AA21324A02EB0012516093
:100DB000304A02EB001291600021334A1154AA21FB
:100DC0002C4A02EB0012D160411CC8B20A28E4DBB5
:100DD00069E02E490978F9B92D490978491CC8B24A
:100DE00018E0AA21234A02EB0012116040F6AA2162
:100DF000204A02EB001251601E4A02EB0012916081
:100E00000021214A1154AA211A4A02EB0012D16092
:100E1000411CC8B20A28E4DB45E01C490978D1B975
:100E200010490978491CC8B239E0AA21114A02EBDD
:100E30000012116040F6AA210E4A02EB0012516026
:100E40000C4A02EB0012916000210F4A1154AA21B2
:100E5000084A1FE026E024E03C0000204400002077
:100E6000A0000020A5000020540300202000002046
:100E7000DD000020940400208C0200204C000020A3
:100E8000A3000020A6000020D4020020A200002021
:100E9000A700002002EB0012D160411CC8B20A2852
:100EA000C3DB00E000BF00BF10BD2DE9F047FE48E6
:100EB0000078FE490978884207D1FD480068FD495D
:100EC0000860FD480068486006E0FC480068F94991
:100ED0000860FB4800684860FA4800680A21B0FBD7
:100EE000F1F0F4498860F84800680A21B0FBF1F09D
:100EF000F049C8600846C068F44908604FF000092E
:100F000000240BE0F24800EB04100068F04901EB0C
:100F10000411C96808448144601CC4B2ED480078DB
:100F20008442EFDBEC4800688144EC48C0F8009054
:100F30000068E0494861EA480078052841D1E9485D
:100F400000681E2802D20020E6490860E6480068D2
:100F50001E2802D20020E4490860E44800681E28E8
:100F600002D20020E1490860DE48006809F019F863
:100F70000746DF4ADF4B09F027F8054608F0E4FF93
:100F8000CC490860D848006809F00BF80546D84AF3
:100F9000D84B09F019F8074608F0D6FFC549486054
:100FA000D248006808F0FDFF0546D14AD14B09F050
:100FB0000BF8074608F0C8FFBE498860CE480068B5
:100FC0004861C7480078072809D1CC480068B9496A
:100FD0000860CB48006800EB800040004860C048D3
:100FE0000078082809D1C5480068B2490860C4489B
:100FF000006800EB800040004860C2480078AD49BE
:10100000C861B7480078002871D001284AD0032869
:1010100002D004286CD1F8E0002406E0BA4810F8A9
:101020002400BA490855601CC4B2052CF6DB102018
:10103000B749087048708870C8701120B54A127896
:101040008854B5480078012809D1002008704870FC
:101050008870C8701121AE48AE4A127881540024BD
:1010600004E00020AD490855601CC4B2142CF8DB24
:101070000120AA49AA4A12788854002406E00020D8
:10108000A8490855A8490855601CC4B20A2CF6DBCB
:101090000220A649087048700321A448A44A127887
:1010A0008154DAE0002406E0A24810F824009749B1
:1010B0000855601CC4B2052CF6DB0020944908706A
:1010C00048708870C87011209B4A12788854002498
:1010D00004E0002091490855601CC4B2142CF8DBD0
:1010E00001208E498E4A12788854002408E048E096
:1010F000B2E000208B4908558B490855601CC4B2EA
:101100000A2CF6DB86480078012803D100207149BB
:10111000087018E08249087800EBD0714910A0EB04
:10112000410139B97E49087800EBD0714910694A0C
:10113000117008E07A490978481E00EBD071C1F3BC
:101140004701644A117001207649624A1278885436
:101150007549604A127888540020744908704870B4
:101160007648007838B103205049097881F00101B0
:101170006E4A505404E003206C494C4A127888545B
:101180006BE0002406E06B4810F824005F49085526
:10119000601CC4B2052CF6DB10205D490870487055
:1011A0008870C87011215A48634A1278815400240B
:1011B00004E0002059490855601CC4B2142CF8DB27
:1011C00001205649564A12788854002406E000202F
:1011D0005449085554490855601CC4B20A2CF6DB22
:1011E00002205249087048705448007838B10320F2
:1011F0002E49097881F001014C4A505404E0032142
:101200004A482A4A1278815427E0002406E03E48E2
:1012100010F824003D490855601CC4B2052CF6DBCB
:10122000474800682349086045484068486044488A
:1012300080680A21B0FBF1F01E4988604048C06810
:101240000A21B0FBF1F01B49C8603E4800684861C4
:101250003D480078C86100E000BF00BF204800782A
:1012600003287ED1002479E0384800EB04100068A0
:10127000374901EB04110860344800EB0410406862
:10128000334901EB04114860304800EB04108068DA
:101290002F4901EB041188602C4800EB0410C06852
:1012A0002B4901EB041156E0BB000020AB000020ED
:1012B0002C0000208C020020300000203400002090
:1012C000380000203C00002040000020C00000202A
:1012D00054030020A500002020000020180000205A
:1012E0004C000020680000207000002078000020E2
:1012F000CDCCCCCCCCCC0040C8010020D00100200B
:10130000D80100203C010020FC020020DD0000206C
:10131000D5000020A30000204D000020AC020020DA
:10132000A4000020C0020020CA020020E200002029
:10133000AC000020E8020020A2000020BD00002038
:10134000100300201C0000203D010020F4030020B9
:101350009404002005E0C860601CC4B20A2C83DB42
:1013600025E0002421E0FB4800EB04100068FA4966
:1013700001EB04110860F74800EB04104068F649DF
:1013800001EB04114860F34800EB04108068F24957
:1013900001EB04118860EF4800EB0410C068EE49CF
:1013A00001EB0411C860601CC4B20A2CDBDBEB4902
:1013B000087800EBD0714910A0EB410129B9012058
:1013C000E74908700020487004E00020E4490870F4
:1013D00001204870E3480078E1498870E2480078CD
:1013E0000871E2480078E24909780843DC49C8708E
:1013F000E04800784871E0480068E04909688842A0
:1014000003D30020D649887102E00120D4498871B5
:101410000020D349C871DA480078C0F34000087250
:10142000D748007800F001004872002412E0CA4852
:1014300000EB041080680A21B0FBF1F201FB1200FE
:1014400018B10120CF49085502E00020CD490855C8
:10145000601CC4B20A2CEADBC049087800EBD071EA
:101460004910A0EB410111BBBA48C749097800EB0C
:1014700001100068C5490968884214D9B548C249B5
:10148000097800EB0110006800EB80004000BF49C4
:10149000096801EB8101A0EB4100BD490978401AC0
:1014A000BC49086152E00020BA4908614EE0A948F1
:1014B000B549097800EB01100068B4490968884211
:1014C00014D9A448B049097800EB01100068AF496D
:1014D00008601020B0490860AC480068C0B2AF494D
:1014E000086007F0A9F8042005F08AFC9948A6498D
:1014F000097800EB011000689649A34A127801EBC5
:101500000211C9680844A149096888421BD9914859
:101510009D49097800EB011000688E499A4A1278BB
:1015200001EB0211C968084400EB800040009749B4
:10153000096801EB8101A0EB410095490978401A47
:101540009449086102E000209249086194480068CB
:1015500090498861084680696421B0FBF1F000027F
:101560008C4989696422B1FBF2F302FB13110A2250
:10157000B1FBF2F100EB011086498969B1FBF2F38E
:1015800002FB131101F00F01084482498861FFF743
:10159000FDFABDE8F087F0B589B007460D468148F1
:1015A0000068C8284CD880484068000201907E49F5
:1015B00001980968084401907B48C06800020290C5
:1015C000794902988968084402907748007C039022
:1015D0007648006804907648006805907548006871
:1015E0000690754800680790604800785E49097861
:1015F000084472490978491C884071490978891C56
:101600008840C0000890322107FB01F04FF4B4710C
:1016100001EB801000EB051600240FE006EB440000
:101620005D49086001A850F824005C49086007F093
:1016300003F8052005F0E4FB601CC4B2082CEDDBC8
:1016400009B0F0BD5F48007801281FD159480068F3
:101650005D4909680844574908603E484A49097885
:1016600000EB0110406800EB800052490968B1EBC3
:10167000400F2AD937484449097800EB01104068E7
:1016800000EB800040004B4908601EE049480068BC
:101690004D490968401A474908602E483A49097877
:1016A00000EB0110406800EB800042490968B1EB93
:1016B000400F0AD227483449097800EB01104068EE
:1016C00000EB800040003B4908604048007801285A
:1016D0001FD1394800683E49096808443649086006
:1016E0001C482949097800EB0110806800EB800054
:1016F00031490968B1EB400F2AD9164822490978C7
:1017000000EB0110806800EB800040002A4908606F
:101710001EE0294800682E490968401A26490860D9
:101720000C481949097800EB0110806800EB800033
:1017300021490968B1EB400F0AD2064812490978DD
:1017400000EB0110806800EB800040001A4908603F
:10175000704700005403002094040020A4000020DF
:10176000DE020020AD000020B0000020B20000200A
:10177000AE0000201C010020C0000020C40000209A
:1017800020010020D4020020A5000020200000201D
:10179000280000208C020020F0000020F40000202F
:1017A0006000002018000020E80200202C0000202B
:1017B000300000203C00002040000020D900002024
:1017C000DA000020A000002044000020A10000203A
:1017D00048000020FE48007888B9FE48007870B9BB
:1017E000FD48007858B9FD48006840F00400FB4906
:1017F00008600120FA490870FA49087015E0F748B6
:10180000001D006840F00400F449091D0860002034
:10181000F3490870F3490870F348006840F4807099
:10182000F14908600020F14908707047F0480078DD
:1018300004280EDB0120EF490870EF480078097892
:10184000884214D0ED48007888B91E20EC49087011
:101850000DE00220E7490870E748007809788842DF
:1018600005D0E648007810B91E20E5490870E34825
:101870000078012802D0E348007810B90020DD4943
:101880000870DC480078DC490870704710B5DE4805
:10189000006800EB800044000D2007F0A8FADB4947
:1018A000086008460068A04203D90120D8490860B2
:1018B00002E00020D649086010BD10B5022007F0F4
:1018C00096FAD449086008460068642803D90120C4
:1018D000D149087002E00020CF490870CE48007856
:1018E000CE490978884222D0CD48007801281ED1FF
:1018F000C948007801281AD1CA480078B8B9BA484E
:10190000006840F01000B8490860081F006840F007
:101910000800091F08600120C249087040F28A20AF
:10192000C14908600020C1490860C1490860BA483F
:101930000078BA49087010BD10B5BE4800780C2177
:1019400090FBF1F201FB1200BA49087008460078DA
:10195000401C0870B848007810B9B848007838B111
:10196000B4480078012803D11B2007F0B6FA18E02C
:10197000B348406840F2523188420BD0B04880688A
:10198000884207D0AE48C068884203D0AC4800689F
:10199000884206D1A7480078012802D11B2007F011
:1019A0009CFA9648007830B1A2480078022802D10B
:1019B000182007F092FAA348007830B19D480078CB
:1019C000032802D1152007F088FA8148007830B149
:1019D00098480078042802D1152007F07EFA7E4846
:1019E000007830B193480078052802D1162007F01E
:1019F00074FA9548007848B18E480078062805D1D9
:101A0000192007F06AFA00208F4908708F48007883
:101A100048B188480078072805D11A2007F05DFAF8
:101A200000208A4908708A48007848B181480078C7
:101A3000082805D1212007F050FA002084490870B9
:101A40008448007848B17B480078092805D11C20DB
:101A500007F043FA00207F4908707F48007848B1BA
:101A6000744800780A2805D11D2007F036FA0020B6
:101A7000794908707948007848B16E4800780B2899
:101A800005D11E2007F029FA002074490870744817
:101A9000007848B1674800780C2805D11F2007F06E
:101AA0001CFA00206E49087010BD6E4800680A21BB
:101AB000B0FBF1F00A306C490968884210D26B48DB
:101AC0000078962805DA69480078401C6749087054
:101AD0000BE001206149087000206449087004E0AF
:101AE0000020624908705D4908705E4800680A215C
:101AF000B0FBF1F00A385C490968884210D95C48AB
:101B00000078962805DA5A480078401C5849087031
:101B10000BE001205249087000205549087004E08C
:101B20000020534908704E490870704751480068BA
:101B30000A21B0FBF1F014304F490968884210D2F5
:101B40004E480078962805DA4C480078401C4B49EE
:101B500008700BE001203F490870002047490870D9
:101B600004E00020454908703A490870414800687F
:101B70000A21B0FBF1F014383F490968884210D9B6
:101B80003F480078962805DA3D480078401C3C49DB
:101B900008700BE0012030490870002038490870B7
:101BA00004E00020364908702B490870704710B5D2
:101BB000344800681E286FD2334800681E286BD254
:101BC000324800681E2867D201200C49087060E086
:101BD000B2000020AF000020B0000020101401402F
:101BE0001F01002042010020140801401C010020B8
:101BF000090000202001002021010020B500002064
:101C0000220100204C000020DC010020E401002023
:101C1000A8010020900000203F010020400100208A
:101C2000430100202D010020380100202801002060
:101C3000D00000204101002053010020F6010020C7
:101C40006C020020AE000020D9000020DA00002045
:101C500054010020B7000020B8000020B900002087
:101C6000BA00002040000020300000206601002063
:101C7000670100203C0000202C00002064010020AF
:101C8000650100206800002078000020700000201E
:101C900002E0FE49087002E00020FD490870FD489E
:101CA00000681E2802D20020FA490860FA4800683D
:101CB0001E2802D20020F8490860F84800681E2853
:101CC00002D20020F5490860F5480078032861DA5F
:101CD000F04800680B2803D2F048006864283DD221
:101CE000EC480068642803D3EC4800680B2835D31F
:101CF000E8480068642803D3E74800680B282DD320
:101D0000E5480068642803D3E24800680B2825D31F
:101D1000E2480068E34909680844DE4909688842E6
:101D20001CD3DC480068DF4909680844DB490968BE
:101D3000884213D3D8480068DA4909680844193042
:101D4000D4490968884209D3D2480068D54909684E
:101D500008441930D0490968884218D2D24800781E
:101D6000A0B9D2480068012814D1D14800780328CE
:101D700010DA0120CC4908700020CD490870CD4808
:101D80000078012806D1152007F0A7F802E000200E
:101D9000C7490870BF480068C749096888420CD81D
:101DA000BD480168C44800683230814205D8BB484C
:101DB0000068C149096888424BD9B648006840F2BA
:101DC0008A21884207D2B4480068884203D2B348C7
:101DD0000068884206D30020B8490870B8490870E6
:101DE000B8490870B74800780F2805DAB548007878
:101DF000401CB44908700EE0B048007858B9AA48B1
:101E0000007840B90120AD4908700020AE49087043
:101E1000162007F062F8AA480078012805DAA848D9
:101E20000078401CA649087018E0A4480078A8B9BA
:101E30009D48007890B99E48007803280EDA01206A
:101E4000994908700020A0490870152007F045F84E
:101E500004E000209A4908709A49087010BD10B536
:101E60009A4800689A490968884205D297480068EC
:101E700098490968884263D2974800783C280ADA72
:101E800095480078401C94490870002093490870D8
:101E9000934908702AE00120924908708B48006835
:101EA0008B490968884208D38C48007828B90120FA
:101EB0008A490870192007F010F88448006885499D
:101EC0000968884208D28648007828B901208449E8
:101ED00008701A2007F001F87C480068B0F5257FEB
:101EE00004D900207F490870784908607948006863
:101EF0000A387649096888420AD97448006838B1B6
:101F00003C207549087001207549087075490870B2
:101F10006E480068012802D80020724908706B489A
:101F200001686B4800680A30814226D301206B4962
:101F300008703C206849087001206A4908701CE05C
:101F40006248006862490968884216D25F480068A2
:101F500060490968884210D35F480078002805DD91
:101F60005D480078401E5C49087006E000205D492D
:101F700008705A4908705A49087010BD2DE9F0419F
:101F800059480078002866D106F0E9FE57490860F4
:101F90005748006878B940F69800554908600846E7
:101FA000006800EB400051490968C1EBC1010844D9
:101FB0004E49086018E04E48006800EB40004B496D
:101FC0000968C1EBC1010844484908600846006837
:101FD00007F0E7FF0646474A474B07F0F5FF044680
:101FE00007F0B2FF424908604048006807F0D9FF97
:101FF0000646424A424B07F0E7FF044607F0A4FFBB
:102000003249086008460068502801D20020086064
:102010002E480068F02804D92C480068401D2B4940
:1020200008600A2006F0E3FE1A4908603548006897
:1020300000EB40000968C1EBC10108440A21B0FB74
:10204000F1F014490860084600682E490860002035
:102050001649086073E02448007801286FD10C20ED
:1020600006F0C5FE0C4908602748006800EB4000F8
:102070000968C1EBC10108440A21B0FBF1F006492F
:10208000086008460068204908603FE049010020D8
:10209000B5000020680000207000002078000020BB
:1020A000220100208C000020B200002084000020CB
:1020B000B40000204301002088000020B000002070
:1020C000B3000020B1000020560100206000002075
:1020D000540000205800002068010020D900002092
:1020E000DA000020AF000020000200208000002065
:1020F000640000209A9999999999B93F7B14AE4749
:10210000E17A843F6C000020740000200B2006F070
:102110006EFEFA490860FA48006800EB4000096862
:10212000C1EBC10108440A21B0FBF1F0F34908609A
:1021300008460068F24908600120F2490860F24848
:102140000078401CF049087008460078012804DD3A
:10215000002008700120BDE8F0810020FBE7F0B509
:1021600089B007460D46E9480078322148434FF4CC
:10217000B47101EB801000EB0516002410E0022082
:1021800000FB0460E249086006F067FA052004F0ED
:1021900037FEE048006801A941F82400601CC4B281
:1021A000082CECDB0198C0B2DB4908600198C0F351
:1021B000072048600298C0B288600298C0F30720E8
:1021C000C8600398C0B20861D449049808600498B4
:1021D000282806D90498B0F5487F02D204980860F0
:1021E00002E00020CD4908600598282807D9059805
:1021F000B0F5487F03D2C9490598486002E0002045
:10220000C6494860C549069888600798C86009B003
:10221000F0BD70B50646002442E006EB86000001E2
:1022200000EBC40505F11E00B949086006F015FA77
:10223000B8480068BA4901EB04110860052004F0B1
:102240008DFD05F12000B249086006F006FAB1489C
:102250000068B34901EB04114860052004F07EFDDD
:1022600005F12200AA49086006F0F7F9A9480068BC
:10227000AB4901EB04118860052004F06FFD05F106
:102280002400A349086006F0E8F9A2480068A449C0
:1022900001EB0411C860052004F060FD601CC4B2AD
:1022A0000A2CBADB002421E09D4800EB04100068F2
:1022B0009C4901EB04110860994800EB0410406848
:1022C000984901EB04114860954800EB04108068C0
:1022D000944901EB04118860914800EB0410C06838
:1022E000904901EB0411C860601CC4B20A2CDBDB0E
:1022F00070BD70B500208C4908708C4908708C49FD
:10230000086018208249086088480178864800786B
:1023100061F3DF107F49086008460068000208602A
:1023200083480068C0B2096808447A49086006F02A
:1023300083F9042004F064FD00207E490860102029
:10234000734908607B480068C0B27249086006F0B3
:1023500073F9042004F054FD12206D490860022036
:102360006C49086006F068F9042004F049FD002477
:102370003BE01E2000EBC405654805606E4800EB9D
:10238000041000686349086006F056F9052004F05F
:1023900037FDA81C5E490860674800EB04104068E0
:1023A0005C49086006F048F9052004F029FD281D65
:1023B00057490860604800EB041080685549086080
:1023C00006F03AF9052004F01BFDA81D50490860ED
:1023D000594800EB0410C0684E49086006F02CF91B
:1023E000052004F00DFD601CC4B20A2CC1DB0024E2
:1023F0003DE0502000EBC40000F11E05444805609C
:102400004E4800EB041000684249086006F014F9D9
:10241000052004F0F5FCA81C3D490860474800EB86
:10242000041040683B49086006F006F9052004F0F6
:10243000E7FC281D36490860404800EB041080681E
:102440003449086006F0F8F8052004F0D9FCA81D0E
:102450002F490860394800EB0410C0682D49086016
:1024600006F0EAF8052004F0CBFC601CC4B20A2C8C
:10247000BFDB00243DE0A02000EBC40000F11E05FE
:10248000234805602E4800EB0410006821490860CD
:1024900006F0D2F8052004F0B3FCA81C1C49086023
:1024A000274800EB041040681A49086006F0C4F899
:1024B000052004F0A5FC281D15490860204800EB04
:1024C000041080681349086006F0B6F8052004F08F
:1024D00097FCA81D0E490860194800EB0410C0685D
:1024E0000C49086006F0A8F8052004F089FC601C7F
:1024F000C4B20A2CBFDB002462E000007800002098
:102500007C00002084000020000200203D0100200B
:10251000F0000020F4000020FC0200201003002046
:10252000F403002054030020A400002063010020D5
:102530001800002020000020A4A3000804A3000825
:1025400064A20008F02000EBC40000F11E05FD4865
:102550000560FD4800EB04100068FC49086006F0C7
:102560006BF8052004F04CFCA81CF6490860F648FE
:1025700000EB04104068F549086006F05DF805209E
:1025800004F03EFC281DEF490860EF4800EB041002
:102590008068EE49086006F04FF8052004F030FC32
:1025A000A81DE8490860E84800EB0410C068E74946
:1025B000086006F041F8052004F022FC601CC4B25B
:1025C0000A2CBFDB0020DF490860E14800781121B8
:1025D00001EB0020DD49086006F02EF8052004F02C
:1025E0000FFC0020D7490860DA49086006F035F88A
:1025F000D6480088000AD6490870084600780A289C
:1026000001DB00200870D148007800F00F00D249AB
:10261000087008460078032801DD01200870CB48C7
:102620000078C0F30310CD490870084600780128EF
:1026300001DD01200870C9480078C94908700220EE
:10264000C849086070BD70B5064600243FE006EB3F
:102650008600000100EBC40000F11E05B9480560CA
:10266000C14800EB04100068B849086005F0E4FFB9
:10267000052004F0C5FBA81CB2490860BA4800EB6D
:1026800004104068B149086005F0D6FF052004F049
:10269000B7FB281DAB490860B34800EB0410806805
:1026A000AA49086005F0C8FF052004F0A9FBA81D91
:1026B000A4490860AC4800EB0410C068A349086056
:1026C00005F0BAFF052004F09BFB601CC4B20A2C85
:1026D000BDDB70BDA5480078032810D1A448007860
:1026E000032859D1A348007805280DD1A2480068D5
:1026F000002805DDA0480068401E9F49086078E377
:102700003B209D49086074E39A48007804280DD165
:1027100099484068002805DD97484068401E964962
:10272000486066E317209449486062E39148007866
:1027300003280DD190488068012805DD8E48806807
:10274000401E8D49886054E31F208B49886050E308
:102750008848007802280DD18748C068012805DD27
:102760008548C068401E8449C86042E30C20824905
:10277000C8603EE37F4800780128C0D17E480069E8
:102780000D2805DD7C480069401E7B49086130E367
:102790001420794908612CE3754800780028AED0F0
:1027A000734800780128AAD17248007801280FD117
:1027B0006D484068B0F58C7F05D96B4840680A3891
:1027C0006949486015E34FF45C706749486010E35D
:1027D0006848007802280FD163488068B0F58C7F84
:1027E00005D961488068401F5F49886001E34FF464
:1027F0005C705D498860FCE25E48007803280DD17A
:102800005948C068012805D95748C068401E564934
:10281000C860EEE258205449C860EAE255480078A2
:1028200004280DD150480069012805D94E48006997
:10283000401E4D490861DCE258204B490861D8E24E
:102840004C48007805280FD147484069B0F58C7F87
:1028500005D9454840690A3843494861C9E24FF4FF
:102860005C7141484161C4E24248007806280FD1BA
:102870003D488069B0F58C7F05D93B488069401F91
:1028800039498861B5E24FF45C7137488161B0E243
:102890003848007807280DD13348C069012805D988
:1028A0003148C069401E3049C861A2E258212E4813
:1028B000C1619EE22F48007808280DD12A48006A9D
:1028C000012805D92848006A401E2749086290E27D
:1028D0005820254908628CE22648007809280FD143
:1028E0002148406AB0F58C7F05D91F48406A0A38F4
:1028F0001D4948627DE24FF45C711B48416278E2F9
:102900001C4800780A280FD11748806AB0F58C7FE0
:1029100005D91548806A401F1349886269E24FF45F
:102920005C711148816264E2124800780B2829D159
:102930000D48C06A012821D90B48C06A401E0A49C7
:10294000C86256E2F0000020C4A10008F400002094
:102950003C010020E8000020A2000020AB00002085
:10296000BB000020C4010020F40300204C00002024
:10297000AA000020A9000020FC0200205821F848ED
:10298000C16236E2F74800780C280DD1F448006B9C
:10299000012805D9F248006B401EF149086328E27E
:1029A0005820EF49086324E2EE4800780D280FD143
:1029B000EB48406BB0F58C7F05D9E948406B0A388D
:1029C000E749486315E24FF45C71E548416310E262
:1029D000E44800780E280FD1E148806BB0F58C7F79
:1029E00005D9DF48806B401FDD49886301E24FF461
:1029F0005C71DB488163FCE1DA4800780F280DD177
:102A0000D748C06B012805D9D548C06B401ED449B2
:102A1000C863EEE15821D248C163EAE1D1480078A9
:102A200010280DD1CE48006C012805D9CC48006C87
:102A3000401ECB490864DCE15820C9490864D8E14C
:102A4000C848007811280FD1C548406CB0F58C7F7C
:102A500005D9C348406C0A38C1494864C9E14FF4FC
:102A60005C71BF484164C4E1BE48007812280FD1B0
:102A7000BB48806CB0F58C7F05D9B948806C401F8D
:102A8000B7498864B5E14FF45C71B5488164B0E141
:102A9000B448007813280DD1B148C06C012805D97D
:102AA000AF48C06C401EAE49C864A2E15821AC4892
:102AB000C1649EE1AB48007814280DD1A848006D90
:102AC000012805D9A648006D401EA549086590E17A
:102AD0005820A34908658CE1A248007815280FD139
:102AE0009F48406DB0F58C7F05D99D48406D0A38F0
:102AF0009B4948657DE14FF45C719948416578E1F7
:102B00009848007816280FD19548806DB0F58C7FD5
:102B100005D99348806D401F9149886569E14FF45C
:102B20005C718F48816564E18E48007817280DD16B
:102B30008B48C06D012805D98948C06D401E884961
:102B4000C86556E158218648C16552E1854800783C
:102B500018280DD18248006E012805D98048006EE2
:102B6000401E7F49086644E158207D49086640E1DF
:102B70007C48007819280FD17948406EB0F58C7FD9
:102B800005D97748406E0A387549486631E14FF4F7
:102B90005C71734841662CE1724800781A280FD1A5
:102BA0006F48806EB0F58C7F05D96D48806E401FF0
:102BB0006B4988661DE14FF45C716948816618E1D4
:102BC000684800781B280DD16548C06E012805D9DA
:102BD0006348C06E401E6249C8660AE158216048D9
:102BE000C16606E15F4800781C280DD15C48006F83
:102BF000012805D95A48006F401E59490867F8E076
:102C0000582057490867F4E0564800781D280FD12E
:102C10005348406FB0F58C7F05D95148406F0A3852
:102C20004F494867E5E04FF45C714D484167E0E08B
:102C30004C4800781E280FD14948806FB0F58C7F32
:102C400005D94748806F401F45498867D1E04FF458
:102C50005C7143488167CCE0424800781F280DD161
:102C60003F48C06F012805D93D48C06F401E3C4910
:102C7000C867BEE058213A48C167BAE039480078D1
:102C8000202811D13648D0F88000012807D93448CF
:102C9000D0F88000401E3249C1F88000A9E05820D9
:102CA0002F49C1F88000A4E02E480078212813D1D4
:102CB0002B48D0F88400B0F58C7F07D92848D0F88D
:102CC00084000A382649C1F8840092E04FF45C7110
:102CD0002348C0F884108CE022480078222813D1C1
:102CE0001F48D0F88800B0F58C7F07D91C48D0F871
:102CF0008800401F1A49C1F888007AE04FF45C71DF
:102D00001748C0F8881074E016480078232811D1BD
:102D10001348D0F88C00012807D91148D0F88C004E
:102D2000401E0F49C1F88C0063E058210C48C0F8E0
:102D30008C105EE00B480078242815D10848D0F8A4
:102D40009000012807D90648D0F89000401E044999
:102D5000C1F890004DE058200149C1F8900048E0CA
:102D6000F4030020A9000020F7480078252813D19B
:102D7000F648D0F89400B0F58C7F07D9F348D0F826
:102D800094000A38F149C1F8940032E04FF45C71C4
:102D9000EE48C0F894102CE0EB480078262813D1B8
:102DA000EA48D0F89800B0F58C7F07D9E748D0F80A
:102DB0009800401FE549C1F898001AE04FF45C7193
:102DC000E248C0F8981014E0DF480078272810D1B6
:102DD000DE48D0F89C00012807D9DC48D0F89C00D8
:102DE000401EDA49C1F89C0003E05821D748C0F8DA
:102DF0009C107047D6480078032810D1D548007839
:102E0000032859D1D048007805280DD1D248006850
:102E10003B2805DAD0480068401CCF49086063E3CE
:102E20000020CD4908605FE3C748007804280DD131
:102E3000C9484068172805DAC7484068401CC64999
:102E4000486051E30020C44948604DE3BE48007823
:102E500003280DD1C04880681F2805DABE48806865
:102E6000401CBD4988603FE30120BB4988603BE3CB
:102E7000B548007802280DD1B748C0680C2805DA9B
:102E8000B548C068401CB449C8602DE30120B24970
:102E9000C86029E3AC4800780128C0D1AE48006979
:102EA000142805DAAC480069401CAB4908611BE3F3
:102EB0000D20A949086117E3A64800780028AED084
:102EC000A44800780128AAD19F48007801280FD192
:102ED0009E484068B0F55C7F05D29C4840680A3047
:102EE0009A49486000E34FF48C7098494860FBE2CF
:102EF0009548007802280FD194488068B0F55C7F2F
:102F000005D292488068401D90498860ECE24FF4F9
:102F10008C708E498860E7E28B48007803280DD1D9
:102F20008A48C068582805D28848C068401C87492C
:102F3000C860D9E201208549C860D5E2824800789E
:102F400004280DD181480069582805D27F480069BE
:102F5000401C7E490861C7E201207C490861C3E248
:102F60007948007805280FD178484069B0F55C7F32
:102F700005D2764840690A3074494861B4E24FF49A
:102F80008C7172484161AFE26F48007806280FD11A
:102F90006E488069B0F55C7F05D26C488069401D41
:102FA0006A498861A0E24FF48C71684881619BE2B4
:102FB0006548007807280DD16448C069582805D2B3
:102FC0006248C069401C6149C8618DE201215F48C7
:102FD000C16189E25C48007808280DD15B48006A2D
:102FE000582805D25948006A401C584908627BE2BB
:102FF00001205649086277E25348007809280FD12A
:103000005248406AB0F55C7F05D25048406A0A30A9
:103010004E49486268E24FF48C714C48416263E269
:10302000494800780A280FD14848806AB0F55C7F8B
:1030300005D24648806A401D4449886254E24FF4F4
:103040008C71424881624FE23F4800780B280DD1D5
:103050003E48C06A582805D23C48C06A401C3B49DB
:10306000C86241E201213948C1623DE23648007838
:103070000C280DD13548006B582805D23348006B19
:10308000401C324908632FE20120304908632BE2DB
:103090002D4800780D280FD12C48406BB0F55C7F8F
:1030A00005D22A48406B0A30284948631CE24FF495
:1030B0008C712648416317E2234800780E280FD10F
:1030C0002248806BB0F55C7F05D22048806B401DA4
:1030D0001E49886308E24FF48C711C48816303E247
:1030E000194800780F280DD11848C06B582805D210
:1030F0001648C06B401C1549C863F5E1012113480F
:10310000C163F1E11048007810280DD10F48006C20
:10311000582805D20D48006C401C0C490864E3E1B6
:1031200001200A490864DFE10748007811281AD114
:103130000648406CB0F55C7F10D20448406C0A3001
:1031400002494864D0E10000A9000020F4030020F7
:103150004C000020AA000020FC0200204FF48C71DB
:10316000FE484164C0E1FE48007812280FD1FB48B8
:10317000806CB0F55C7F05D2F848806C401DF74943
:103180008864B1E14FF48C71F4488164ACE1F44897
:10319000007813280DD1F148C06C582805D2EF48AB
:1031A000C06C401CED49C8649EE10121EB48C1643C
:1031B0009AE1EB48007814280DD1E848006D5828B2
:1031C00005D2E648006D401CE44908658CE1012009
:1031D000E249086588E1E248007815280FD1DF4808
:1031E000406DB0F55C7F05D2DC48406D0A30DB49AC
:1031F000486579E14FF48C71D848416574E1D8484D
:10320000007816280FD1D548806DB0F55C7F05D2C7
:10321000D248806D401DD149886565E14FF48C71BD
:10322000CE48816560E1CE48007817280DD1CB48A3
:10323000C06D582805D2C948C06D401CC749C86533
:1032400052E10121C548C1654EE1C5480078182802
:103250000DD1C248006E582805D2C048006E401CEF
:10326000BE49086640E10120BC4908663CE1BC4813
:10327000007819280FD1B948406EB0F55C7F05D2AF
:10328000B648406E0A30B54948662DE14FF48C715E
:10329000B248416628E1B24800781A280FD1AF48F9
:1032A000806EB0F55C7F05D2AC48806E401DAB49A6
:1032B000886619E14FF48C71A848816614E1A8482A
:1032C00000781B280DD1A548C06E582805D2A34808
:1032D000C06E401CA149C86606E101219F48C16635
:1032E00002E19F4800781C280DD19C48006F5828A7
:1032F00005D29A48006F401C98490867F4E0012005
:1033000096490867F0E0964800781D280FD1934849
:10331000406FB0F55C7F05D29048406F0A308F490E
:103320004867E1E04FF48C718C484167DCE08C48E1
:1033300000781E280FD18948806FB0F55C7F05D2D8
:103340008648806F401D85498867CDE04FF48C71B9
:1033500082488167C8E0824800781F280DD17F48E5
:10336000C06F582805D27D48C06F401C7B49C86794
:10337000BAE001217948C167B6E079480078202891
:1033800011D17648D0F88000582807D27348D0F879
:103390008000401C7149C1F88000A5E001206F4900
:1033A000C1F88000A0E06E480078212813D16B4856
:1033B000D0F88400B0F55C7F07D26848D0F884006C
:1033C0000A306649C1F884008EE04FF48C7163487E
:1033D000C0F8841088E062480078222813D15F4842
:1033E000D0F88800B0F55C7F07D25C48D0F8880040
:1033F000401D5A49C1F8880076E04FF48C71574857
:10340000C0F8881070E056480078232811D153483E
:10341000D0F88C00582807D25048D0F88C00401CB7
:103420004E49C1F88C005FE001214C48C0F88C1077
:103430005AE04B480078242811D14848D0F8900031
:10344000582807D24548D0F89000401C4349C1F89D
:10345000900049E001204149C1F8900044E0404813
:103460000078252813D13D48D0F89400B0F55C7F52
:1034700007D23A48D0F894000A303849C1F894008D
:1034800032E04FF48C713548C0F894102CE0344889
:103490000078262813D13148D0F89800B0F55C7F29
:1034A00007D22E48D0F89800401D2C49C1F898004A
:1034B0001AE04FF48C712948C0F8981014E028489D
:1034C0000078272810D12548D0F89C00582807D22A
:1034D0002248D0F89C00401C2049C1F89C0003E021
:1034E00001211E48C0F89C10704710B51D48007897
:1034F000032861D11A480078401C194908701A48FD
:103500000078032806D108460078052801DD01204F
:103510000870DFE01448007880B91148007804286A
:1035200002DD01200E4908700D480078401E0F4949
:10353000087008460078FEF76CFECBE00A48007879
:10354000012828D106480078272802DD27200449D1
:103550000870064800780028DBD109E0F403002059
:10356000A90000204C000020AA000020A300002099
:10357000FE490878C11700EB9171FD4A1278B2EB51
:10358000A10FC6DAF9490878C11700EB91718910CB
:10359000F74A11709EE0F74800780228B9D1F34845
:1035A0000078022802DD0120F0490870EF48007819
:1035B000401EF14908708DE0F04800780028A8D13D
:1035C000EF48007888B3EF4800781328A1DAED4877
:1035D0000078401CEB490870087800EBD071491066
:1035E000A0EB410139B9E749087800EBD0714910E7
:1035F000E54A117008E0E3490978481E00EBD071F4
:10360000C1F34701E04A11700020E0490860102032
:10361000DF490860DD480068C0B2DE49086005F097
:103620000BF8042003F0ECFB54E0FFE7D5490878E1
:1036300000EBD0714910A0EB410139B9D1490878AC
:1036400000EBD0714910D04A117008E0CD490978DB
:10365000481E00EBD071C1F34701CB4A1170CA4834
:103660000078C3490978884234DCC64800781328BA
:1036700030DAC4480078401CC24908700020C349B1
:103680000860C049087800EBD0714910A0EB4101F7
:1036900039B9BC49087800EBD0714910BA4A1170A9
:1036A00008E0B8490978481E00EBD071C1F3470122
:1036B000B54A11700020B54908601020B44908606F
:1036C000B2480068C0B2B349086004F0B5FF0420F6
:1036D00003F096FB10BD10B5A8480078032843D12D
:1036E000A2480078002804DDA0480078401E9F49C9
:1036F0000870A0480078032807D19C48007800286B
:1037000067D105209949087063E09A48007878B934
:103710009648007810B904209449087093480078BE
:10372000401E9D49087008460078FEF772FD50E083
:1037300090480078012807D18C480078002848D1AB
:1037400001208A49087044E08A480078022840D164
:103750008648007810B902208449087083480078B0
:10376000401E8549087034E08448007888BB85484D
:103770000078012804DD83480078401E81490870E4
:103780008049087800EBD0714910A0EB410139B9AC
:103790007C49087800EBD07149107B4A117008E031
:1037A00078490978481E00EBD071C1F34701764A89
:1037B0001170002075490860102075490860734831
:1037C0000068C0B27349086004F036FF052003F0BA
:1037D00017FB10BD2DE9F0410646202E7ED015DCEA
:1037E000112E81F01C80DFE816F01A0826008201F5
:1037F0001A08AB021A081A083C04DB021A081A0855
:103800001A0869071A08100415075803A12E66D074
:103810000ADC302E00F0CF87402E7DD0702E7CD079
:10382000802E40F0FC87EFE3AA2E77D0E02E76D0F2
:10383000F02EF6D120E15148007805281DD15748D7
:1038400000784E49087012205149086054480068B9
:103850005449086008460068092802D808460068EC
:1038600010B902204F4908604E4800684949086075
:1038700004F0E2FE052003F0C3FA40480078072870
:1038800013D1464800783D4908701420404908602B
:103890004548006845490860084600683D49086099
:1038A00004F0CAFE052003F0ABFA3448007808287B
:1038B00013D13A480078314908701620344908601D
:1038C0003B4800683B490860084600683149086089
:1038D00004F0B2FE052003F093FA01E03AE3FDE3C1
:1038E0003548406940F0400033494861234800783A
:1038F00001286DD001203149087031480078012835
:1039000011D11E48007803280DD02E48006840F4DD
:1039100000702C49086003E0BAE3BBE2FEE3B6E2C4
:103920002A2005F0DAFA01201449087026490870A7
:10393000182017490860244801781248007861F37C
:10394000DF101449086008460068000208601F483C
:103950000068C0B2096808440E49086004F06CFEB3
:10396000052003F04DFA0749087832E0A90000204D
:10397000A6000020AA000020AC0000204C0000207F
:10398000A2000020A4000020A500002020000020AC
:10399000F0000020F4000020A30000204F000020D1
:1039A000C8010020C4010020D0010020CC0100206B
:1039B000D8010020D4010020001001401F01002088
:1039C000430100201008014063010020180000207E
:1039D00051E000EBD0714910A0EB410139B9FE492B
:1039E000087800EBD0714910FC4A117008E0FA49E0
:1039F0000978481E00EBD071C1F34701F74A1170F6
:103A00000020F7490870F7490870F7490870F7492E
:103A10000870F7490870F1480078012817DBEF4873
:103A20000078401EF34901EB0010406800EB800075
:103A30004000F1490860E9480078401EED4901EB7B
:103A40000010806800EB80004000EC490860FCF743
:103A500059FFFCF739FE0020E949086004F0FDFD3C
:103A6000E8480088000AE8490870084600780928F4
:103A700001DB00200870C6E2E4480078B0B3002003
:103A8000E2490870E2480078012808D1E14800685E
:103A900040F40070DF4908602B2005F01EFA00207A
:103AA000DD4908701820D6490860DB480178CA480B
:103AB000007861F3DF10D34908600846006800020F
:103AC0000860D6480068C0B209680844CD4908605B
:103AD00004F0B2FD052003F093F9CE48006840F4ED
:103AE0008070CC4908600020CD490870C3E7C74802
:103AF0000078002860D0012873D0032872D1C9480B
:103B0000007808BBC8480078401CC74908700846C0
:103B10000078032801DD00200870C348007828B928
:103B2000C2480078401CC249087044E0BE48007892
:103B3000022805D1BF480078401CBD4908703AE012
:103B40000120BB49087036E0B6480078012832D120
:103B5000B5480078401CB44908700846007803282E
:103B600001DD01200870B0480078022805D1B14875
:103B70000078401CAE4908701DE0AB480078012871
:103B800016D19549087800EBD0714910A0EB41019E
:103B900031B9924800788006000EA54908700AE005
:103BA0008E480078032101EB8000A149087002E0F3
:103BB00001209F490870C1E0944800789949087035
:103BC0000320924908709C480078984908709B48E7
:103BD0000078984908709A4800789A49087000243B
:103BE00023E042E0A9E0834800EB04100068964916
:103BF00001EB041108607F4800EB04104068924913
:103C000001EB041148607B4800EB041080688E498A
:103C100001EB04118860774800EB0410C0688A4902
:103C200001EB0411C860601CC4B20A2CDBDB002469
:103C300007E0864850F82400854941F82400601CBC
:103C4000C4B2052CF5DB8348006940F0400081498F
:103C50000861232080490870002073490870734868
:103C60000078401C7249087068E0684800786D4927
:103C700008700320654908706F4800786B49087028
:103C80006E4800786B4908706D4800786D4908707F
:103C9000002421E0574800EB041000686A4901EB5A
:103CA00004110860534800EB04104068664901EBBA
:103CB000041148604F4800EB04108068624901EB32
:103CC000041188604B4800EB0410C0685E4901EBAA
:103CD0000411C860601CC4B20A2CDBDB002407E0BE
:103CE0005A4850F824005A4941F82400601CC4B2D4
:103CF000052CF5DB5748006940F040005549086144
:103D00002320554908700120474908703249087836
:103D100000EBD0714910A0EB410131B92F48007878
:103D20008006000E4249087006E02C480078032106
:103D300001EB80003E49087000E000BF00BF9AE63A
:103D4000FFF7C9FC31480078042828D1434800789F
:103D5000002805DD41480078401E4049087002E017
:103D600009203E4908703D4800784000801C2449E5
:103D7000086004F072FC234800783949087008464E
:103D80000078C82801DD002008700120354908604E
:103D900008460068C1B231480078FEF7E0F96AE6EB
:103DA000FFF7A3FB1948007804286FD12B4800784F
:103DB000401C2A490870084600780A2801DB0020C8
:103DC0000870264800784000801C0D49086004F007
:103DD00044FC0C48007847E0A4000020A500002027
:103DE0000B0000200C000020280000201400002000
:103DF00015000020540300203C000020400000205B
:103E0000F0000020F40000203C0100204C000020C5
:103E10004301002014080140630100201800002025
:103E20001C0100204D000020AA000020A30000205B
:103E3000A9000020AC000020A2000020AB00002060
:103E4000A7000020A6000020F4030020E8020020C4
:103E5000FC020020001001404E0000203D01002027
:103E6000060000201C000020F94908700846007870
:103E7000C82801DD002008700120F64908600846C6
:103E80000068C1B2F4480078FEF769F9F3E5FFF77E
:103E900022FCF0E5FFF729FBEDE5F048007890B94A
:103EA000EF480078401CEE49087008460078332837
:103EB00001DD00200870EB480078012803D1E848B4
:103EC000007805F00AF8E5480078042811D1E148A7
:103ED0000068DF490978884204D2DE480068401C47
:103EE000DC490860DB480068C1B2DB480078FEF7B7
:103EF00036F9FEF77FFFD948007805280AD1DA485D
:103F00000068401CD849086008460068092801D9A3
:103F100001200860D148007807280BD1D3480068F9
:103F2000401CD249086008460068B0F57A7F01D38A
:103F300001200860C948007808280AD1CC480068E8
:103F4000401CCB49086008460068102801D90120B0
:103F5000086090E5C1480078A0B9C1480078002801
:103F600005DDBF480078401EBD49087002E03320DF
:103F7000BB490870BB480078012803D1B8480078D5
:103F800004F0ABFFB548007804280FD1B1480068B1
:103F9000012804D9AF480068401EAE490860AD480A
:103FA0000068C1B2AC480078FEF7D9F8FEF792FB82
:103FB000AA480078052809D1AB480068401EAA49E4
:103FC00008600846006808B909200860A34800781E
:103FD00007280AD1A5480068401EA4490860084681
:103FE000006810B940F2E73008609C480078082863
:103FF00009D19F480068401E9D4908600846006836
:1040000008B910200860ADE2E8E29448007804287E
:1040100012D1904801688E480078401D814204D238
:104020008C480068401D8B4908608A480068C1B20E
:1040300089480078FEF793F8FEF7DCFE87480078A1
:1040400007280DD1894800680A3088490860084669
:10405000006840F2E731884202D3012083490860BA
:10406000DEE37E48007804280FD17A4800680528EE
:1040700004D378480068401F764908607548006896
:10408000C1B275480078FEF76AF8FEF723FBC7E374
:104090007848007820B30020764908707649087087
:1040A000062076490870002075490870714908702B
:1040B0007448006840F00400724908607248006863
:1040C00040F48070704908600120704908707049A0
:1040D00008707049087000206F4900E0D1E2087054
:1040E0006E48007810B300206C49087006206349C0
:1040F00008700020624908706849087061480068CB
:1041000040F004005F4908605F48006840F4807038
:104110005D49086001205E49087000E023E25D49C6
:1041200008705A49087000205B4908705C480078A4
:10413000012820D100205A4908705A4908705A496C
:1041400008705A4908704E4908704E48006840F09F
:1041500004004C4908604C48006840F480704A49AB
:1041600008600120494908704949087049490870A8
:1041700000204949087039480078032867D14C4825
:1041800000783649087000204A4908704A4840695A
:1041900040F040004849486148480078484909785B
:1041A000884217D0464800784449087000204549A5
:1041B00008604548007800024449097800EB011086
:1041C0003F49097808444249086004F035FA05205F
:1041D00002F016FE3F4800783C49097888421BD01F
:1041E0003A4800783B490870084600783A49087018
:1041F00000203449086034480078000233490978C7
:1042000000EB01102E49097808443149086004F098
:1042100013FA052002F0F4FD002500247CE02F486D
:1042200000EB041000682E4901EB04110968884274
:1042300001D0012572E0294800EB041040682849AC
:1042400001EB0411496888424CD0012566E02CE15D
:10425000060000201C0000203D0100204C00002032
:104260005501002043010020C8010020D00100209A
:10427000D8010020B0000020B3000020B4000020CE
:104280004601002010140140100801401C010020CC
:10429000420100201F01002069010020B20000201F
:1042A000AF00002068010020D9000020DA000020C3
:1042B0004D000020A900002000100140A2000020B5
:1042C000A3000020F00000203C010020AC000020F2
:1042D000F4000020AB000020BB00002054030020AD
:1042E000F4030020FC4800EB04108068FB4901EB5C
:1042F00004118968884201D001250FE0F64800EBDF
:104300000410C068F54901EB0411C968884201D066
:10431000012503E0601CC4B20A2C80DB00BF012D24
:104320007ED10027EE480078012836D1EA48ED49D1
:10433000097800EB01100068E849EA4A127801EBBD
:1043400002110968884209D0E749087800EBD0716A
:104350004910A0EB410101BB01271EE0DE48E14905
:10436000097800EB01104168DC48DE4A127800EB66
:1043700002104068814201D001270EE0D648D94999
:10438000097800EB01108068D449D64A127801EB15
:1043900002118968884200D00127002421E0CF481B
:1043A00000EB04100068CC4901EB04110860CB4815
:1043B00000EB04104068C84901EB04114860C7488D
:1043C00000EB04108068C44901EB04118860C34805
:1043D00000EB0410C068C04901EB0411C860601C08
:1043E000C4B20A2CDBDBC1480078FEF72CF9C048C8
:1043F0000078E0B91820BF490860BF480178BA4882
:10440000007861F3DF10BD490860084600680002CB
:104410000860BB480068C0B209680844B74900E0BA
:104420000BE0086004F008F9052002F0E9FC012F18
:1044300003D1FCF767FAFCF747F9002500240CE0EC
:10444000B04850F82400B04951F82410884200D1F7
:1044500001E0012503E0601CC4B2052CF0DB00BFC5
:10446000012D0ED1002407E0A74850F82400A549EB
:1044700041F82400601CC4B2052CF5DBA14804F00F
:1044800013FC9A480078D8B9A0480078A049087071
:10449000944800780978884212DC9E480078012808
:1044A0000ED100209B4908700AE09B480078042840
:1044B00006D18B4800789849087000209749087009
:1044C0009548007805281DD19548007892490870D4
:1044D000122088490860934800689349086008469C
:1044E00000688649086090480068092802D88E480C
:1044F000006810B902208C49086004F09DF804207F
:1045000002F07EFC84480078072813D184480078A4
:1045100081490870142077490860844800688449FC
:104520000860084600687549086004F085F80520B1
:1045300002F066FC78480078082813D178480078A3
:104540007549087016206B4908607A4800687A49F6
:104550000860084600686949086004F06DF80520A5
:1045600002F04EFC5CE1FDF7C4FE74480078FDF7F4
:1045700050FE18205F49086004F06FF85F4800782B
:104580005F49086008460068C82801D90020086013
:104590005A480088C0F3062053490870084600783E
:1045A000132801DD002008704F49087800EBD07116
:1045B0004910A0EB410139B94B49087800EBD071A3
:1045C0004910484A117008E047490978481E00EB35
:1045D000D071C1F34701434A117021E15848007876
:1045E0005849097888420BD156480078C04354494D
:1045F000087004205449087001205449087008E0EC
:10460000504800784E49087000204F4908704F49C3
:10461000087005E14048007818B13F48007801284B
:104620002ED13D4800782E49087004203A49087080
:104630002320474908700420464908700120374963
:104640000870454908604548007845490870424867
:104650000068C1B242480078FDF781FD404800780B
:104660004000801C2349086003F0F7FF23480078CE
:104670003C49087008460078C82801DD0020087011
:10468000CEE025480078082807D02348007807287E
:1046900003D021480078052801D1BDE8F0811E48EB
:1046A00000781F49087005201B4908701E480068E3
:1046B0001C490860192026490870B1E016480078A6
:1046C000082807D014480078072803D0124800783B
:1046D000052849D1E1E7000054030020F40300203D
:1046E0004D000020A5000020A4000020A300002011
:1046F0003E010020F000002063010020F4000020B3
:1047000018000020E8020020FC020020A600002083
:10471000A7000020A80000204C000020A9000020D5
:104720004F000020C8010020C4010020D00100205B
:10473000CC010020D8010020D4010020A2000020DC
:10474000BB000020AB000020BC000020BD0000200A
:104750004E000020AA0000201C0000203C01002088
:104760003D01002006000020FE480078072813D1F4
:10477000FD480078FB4908701420FC490860FC489B
:104780000068FC49086008460068FB49086003F0BF
:1047900053FF052002F034FBF2480078F24908701C
:1047A0000720F0490870F3480068F14908601920B3
:1047B000F249087034E0EB480078082807D0E9484F
:1047C0000078072803D0E7480078052800D164E77F
:1047D000E4480078082813D1E3480078E1490870DC
:1047E0001620E2490860E6480068E6490860084685
:1047F0000068E149086003F01FFF052002F000FB9C
:10480000D8480078D84908700820D6490870DD4893
:104810000068DB4908601920D849087000E000BF33
:1048200000BF00BF39E702F09BF802F037FA02F050
:10483000D2F842F2283005F034FB012005F025FBC8
:10484000012005F010FB02F044FACF48006840F068
:104850000400CD490860CD48006840F48070CB4921
:1048600008600020CA4908700120CA490860782001
:10487000C94908600120C94908700020C84908706A
:10488000C84908601220B949086003F0E6FE042018
:1048900002F0B6FAB8480068C349086008460068E4
:1048A000092802D80846006810B90220BE490860ED
:1048B000BD480068BD4908601420AC49086003F099
:1048C000CCFE052002F09CFAAB480088C0F309003A
:1048D000A849086008460068B0F57A7F01D3012036
:1048E0000860A4480068A249086016209F49086033
:1048F00003F0B3FE052002F083FA9F48007800F031
:104900000F00A0490860084600680C2801D9012062
:1049100008609C4800689A490860A548406940F4CE
:104920000050A34948610846406940F480604861EE
:104930000120A04908703C209F49086002F016FC45
:1049400004F068F904F0D4F9002405E000209B4944
:1049500041F82400601CC4B2042CF7DB002404E0FE
:10496000964803F0C8FF601CC4B2142CF8DB00208A
:1049700093490860002506E09248405DA84200D0B7
:1049800003E0681CC5B2052DF6DB00BF052D6FDA0C
:10499000002503E08B484555681CC5B2052DF9DBA1
:1049A0000020724908608849086088490870884971
:1049B00008708849087003F050FE6F480088000AAC
:1049C0008549087008460078092801DB0020087036
:1049D0006948007800F00F008049087008460078A8
:1049E000032801DD0120087063480078C0F303103C
:1049F0007B49087008460078012801DD0120087015
:104A0000774800787749087000207749087077491F
:104A10000870774908707749087077490870012055
:104A20007649087008460078754908700020754975
:104A30000870002412E04FF480615448103804F0EC
:104A4000E1FF012805D16F480078401C6D490870CE
:104A500002E000206B490870601CC4B20A2CEADB3B
:104A600068480078052804DD01206449087007E0E3
:104A7000AFE164480078032802DA00205F4908703B
:104A800000206149087055480078FDF7C2FB0024FA
:104A900021E05E4800EB041000685D4901EB041161
:104AA00008605A4800EB04104068594901EB0411B2
:104AB0004860564800EB04108068554901EB04112A
:104AC0008860524800EB0410C068514901EB0411A2
:104AD000C860601CC4B20A2CDBDB4B48007801289C
:104AE00026D1002422E00020494901EB041108608E
:104AF000464901EB04110860454901EB0411486087
:104B0000424901EB04114860414901EB04118860FE
:104B10003E4901EB041188603D4901EB0411C86076
:104B20003A4901EB0411C860601CC4B20A2CDADBFC
:104B300032480078012808D12E2004F0CEF91C4814
:104B4000006940F400701A49086100200B490870A0
:104B50003049087030490870304908703049087091
:104B6000304961E04C0000204F000020F0000020A0
:104B7000D0010020CC010020F40000204E000020D5
:104B8000D8010020D4010020141401401008014075
:104B90004A01002014020020180200201D010020FC
:104BA0004C01002004020020C4010020C8010020A4
:104BB000001001402E010020AC0100206C020020FA
:104BC000A801002000000020E8000020690100206A
:104BD00046010020070000203C010020A200002028
:104BE000AB000020BB000020A9000020AA0000208C
:104BF000A8000020A7000020A600002043010020FC
:104C0000440100204501002074010020F40300202D
:104C10005403002014000020150000200B00002089
:104C20000C000020180000200860FE490860FE49C2
:104C30000870FE490870FE490870FE490870FE4978
:104C40000870FE490870FE490870FE490870FE4968
:104C50000870FE490870FE490870FE490870FE4958
:104C60000870FE490870FE490860FE490860FE4968
:104C70000860FE490860FE490860FE490860FE4978
:104C80000860FE490860FE4908704FF4C870FD498D
:104C900008600020FC490870FC490870FC49087055
:104CA000FC4908700520FC4908700020FB49087089
:104CB000FB490870FB490870FB490870FB49087004
:104CC000FB490860FB490860FB490870FB49087014
:104CD000FB490870FB490870FB490870FB490870E4
:104CE000FB490870FB490870FB490870FB490870D4
:104CF000FB490870FB490870FB490870FB490870C4
:104D0000FB4908700120FB4908707820FA490860C7
:104D1000FA4908600120FA490870FA480078012829
:104D20000ED1F9484068F9490860F7488068F849A9
:104D30000860F5484068F7490860F34880684860B3
:104D4000F048007870B9F048C068F0490860EE4853
:104D50000068EF490860EC48C068EE490860EA481E
:104D6000006848600120EC490870EC4908701E207A
:104D7000EB4908700120EB490860032102F03CF97F
:104D80000321022002F038F90321042002F034F953
:104D90000321082002F030F90321402002F02CF911
:104DA0000321202002F028F90321102002F024F929
:104DB0000321802002F020F9002404E0322002F0D8
:104DC0001FF8601CC4B20A2CF8DB0020D64908701A
:104DD00032E0D6480078012806D1D548006840F472
:104DE0000070D349086009E0D0480078032805D155
:104DF000D048006940F04000CE49086193480078EF
:104E000050B1CD48006840F00400CB490860012053
:104E10008E490870C94908708A48007860B1C7484F
:104E20000078012808D1C248006840F48070C04969
:104E30000860012083490870BD48001D006840F0EB
:104E40001000BB49091D0860081F006840F00800F9
:104E5000091F08600120804908704FF42F70B8497D
:104E600008600020B7490860B7490860B749086082
:104E700077490870B6490870B6490870002405E003
:104E80000020A44941F82400601CC4B2082CF7DBC0
:104E9000B14803F0EDFE0020B04908701820B04979
:104EA000086003F0DAFBAF480078AF490860AD480E
:104EB0000088C0F3C030AD490870AB480068C8280E
:104EC00002D90020A8490860A6480088C0F306203F
:104ED000A749087008460078132801DD00200870F3
:104EE000A349087800EBD0714910A0EB410139B912
:104EF0009F49087800EBD07149109E4A117008E074
:104F00009B490978481E00EBD071C1F34701994ACB
:104F1000117094480088C0F3C03094490870084666
:104F20000078012801DD0020087010208C490860FD
:104F300003F093FB032001F063FF8A48007889495E
:104F4000086008460068282803D2084600683549EA
:104F500008608749087800EBD0714910A0EB410147
:104F6000F1B18549834A127801EB021109682D4A93
:104F70001268914214D980487E49097800EB0110EB
:104F800000682849086010207549086025480068B5
:104F9000C0B27449086003F04FFB042001F030FFF9
:104FA0007248007801283BD160490870002073499D
:104FB000087073480078012808D15D48006840F403
:104FC00000705B4908602A2003F087FF01206749D1
:104FD000087000206B4908706B490870124908700E
:104FE0006A4908706A49087062480078012818DB2D
:104FF00060480078401E604901EB0010406800EBFB
:10500000800040002A4908605A480078401E5A49EA
:1050100001EB0010806800EB800040002549B9E0FA
:10502000CCE0B8E020000020280000204E01002045
:105030004D01002064010020650100206601002070
:10504000670100201C0100201E0100201F0100201C
:1050500020010020080000202D010020AD000020CC
:105060006000002064000020680000206C00002028
:105070007000002074000020780000207C000020D8
:105080006801002088000020AF000020B000002050
:10509000B2000020B3000020B4000020B5000020C2
:1050A000B7000020B8000020B9000020BA0000209E
:1050B0003C00002040000020570100205801002043
:1050C000590100205A0100205B0100205C010020F2
:1050D0005D0100205E0100205F01002060010020D2
:1050E0006101002062010020410100206B010020CD
:1050F0006C0100204901002094000020980000204D
:10510000DC000020BB0000206C0200202C000020EE
:10511000300000208C02002052010020D40000202A
:105120004F010020E80100203E0100204C0000203B
:1051300010080140001001401014014042010020FD
:105140003801002028010020D0000020CC000020E1
:105150004601002069010020E802002048010020EB
:10516000F0000020F400002018000020630100205F
:10517000A4000020A5000020540300204D000020C2
:10518000430100200B0000200C0000201400002030
:10519000150000200860FBF7B5FBFBF795FA01202E
:1051A000FE490870FE48006840F00400FC490860B1
:1051B0000120FC490870FC49087004E00020FB490C
:1051C0000870FB4908700520FA4908700020FA4968
:1051D00008701220F949086003F03FFA052001F039
:1051E0000FFEF7480068F74908600846006809287C
:1051F00002D80846006810B90220F2490860F14858
:105200000068F14908604FF4C870F0490860B420A4
:10521000EF4908604FF48770EE490860A020EE491E
:1052200008600020ED490860ED49087804F066F850
:1052300003F03CFF4FF4FA7001F0E2FD01F019B801
:10524000E848007801287BD1E7480078012877D02A
:10525000E3480078E549087001204870E448007888
:1052600000F01F00E349097840EAC110E2490978DB
:1052700040EA4110DD498870E0480078012803D1F8
:105280000020DF49086003E04FF48040DC490860FB
:10529000DC48007818B14FF40040D9490860DA487A
:1052A000007818B14FF44040D5490860D7480068ED
:1052B000C0F30900D24909880843CC498880B9481D
:1052C000007818B90020CE49086003E04FF4804010
:1052D000CB490860CE480068C0F30900C849098876
:1052E0000843C249C880CB4800680A21B0FBF1F0EE
:1052F000C0F30900BD490881C74800680A21B0FB16
:10530000F1F0C0F30900B9494881C448007800F0C1
:105310003F01C348006961F39F20B4498881C148B7
:1053200000688873C048006864280AD3BE480068D3
:10533000B0F5AF7F05D2BC4800686438C87303E09D
:10534000A7E00020A949C873A8480078A749497870
:105350000844A64989780844A44909790844A3491E
:10536000898800EB2120A149897908449F49C9888F
:1053700000EB21209D49097A08449C49098900EBEA
:1053800021209A49897A08449849498900EB2120CB
:105390009649097B08449549898900EB2120934966
:1053A000897B08449149C97B0844C043401C8F490C
:1053B0000874084600789D4908708C484078487009
:1053C0008A4880788870894880880012C870874829
:1053D000007908718548C088001248718348807937
:1053E0008871824800890012C8718048007A08726A
:1053F0007E484089001248727C48807A88727B48D7
:1054000080890012C8727948007B08737748807BD6
:1054100048737648C07B887308460078497808440A
:105420008249897808448149C97808447F490979C3
:1054300008447E49497908447C49897908447B4974
:10544000C97908447949097A08447849497A08446D
:105450007649897A08447549C97A08447349097BB1
:1054600008447249497B08447049897B0844704963
:105470000860084600786D49C8730846C07BC04381
:10548000401CC8731021694803F077FF002055497C
:10549000087068480078012818D16748007801280A
:1054A00005D16648006940F40070644908611E2017
:1054B0006349087014206349087063480078FEF758
:1054C00089F90020604908705A4908705F480078DF
:1054D000012805D100205D4908705D4803F0C8FB34
:1054E0005C48007801280AD13E480078012806D09F
:1054F000FBF7DBFC01F047FE0020564908703A48F4
:105500000078012848D1544800680028FAD153484F
:1055100003F0F1F950BB52480078002825D15048DB
:10552000007828B901204E4908701B2003F0D5FCF3
:105530004A484068354908604848806834490860EE
:105540004648C068474908604448006846490860C2
:1055500042484068454948604048806888603F4804
:10556000C068C8603D480068086001E100203C490F
:1055700008703F48007801280FD13C4840683B49FB
:10558000896808443949C9680844384909680844A1
:1055900032494968401A6DE0B2E1A1E01F010020E4
:1055A000101401401C010020420100204C0000208A
:1055B0007501002076010020DB000020F0000020B3
:1055C000F4000020C4010020C80100208800002051
:1055D0008C00002054000020580000201000002003
:1055E000CC010020F3010020520100202003002004
:1055F000D401002063010020A2000020B50000209B
:10560000F8010020B2000020B00000202C00002093
:10561000300000203C00002040000020A4000020BA
:105620008C020020180000206000002032030020BF
:10563000FC0100204E010020430100200010014029
:105640004F0100204E0000204D010020510100209C
:10565000E8020020D4000020040200206C02002098
:105660005301002034000020380000207C0200207C
:10567000AB000020FC498968401AFB49C968401A00
:10568000F9490968401AF949086008460068502835
:1056900018DA0846006810F1500F13DDF248406830
:1056A000F3490860F0488068F2490860EE48C06835
:1056B000F1490860EC480068F0490860ED4800686E
:1056C000EF490860E8484068EE494860E64880686D
:1056D0008860E548C068C860E3480068086047E043
:1056E000E9480078F0BBE7484068E6498968084423
:1056F000E449C9680844E34909680844DA49496843
:10570000401AD9498968401AD749C968401AD64908
:105710000968401AD549086008460068502818DA18
:105720000846006810F1500F13DDCF48C068D0491B
:105730000860CD480068CF490860CB484068CE4932
:105740000860C9488068CD490860CA480068CC49EB
:105750000860C5484068CB494860C3488068886095
:10576000C14800E004E0C068C860BF480068086045
:10577000BD484068282812D9BB48806828280ED91F
:10578000B948C06828280AD9B7480068282806D927
:105790000020BE4908700120BD49087012E0BD48D4
:1057A0000078401CC0B2BB49087003280ADD002005
:1057B0000870B648007828B90120B44908701B2049
:1057C00003F08BFBB4480078012803D0AF48007881
:1057D000012812D1AE48007878B1B0480078401C5A
:1057E000AE49087008460078032803DC2820AC493D
:1057F000086002E00420A94908709B48406840F214
:10580000523188420BD098488068884207D0964829
:10581000C068884203D094480068884212D19C48EE
:10582000007878B19D480078401C9C490870084673
:105830000078032803DC28209949086002E004204E
:105840009649087097480068012821D18F48007850
:10585000F0B991480078D8B993480078012817D159
:105860009248006840F0100090490860081F0068E6
:1058700040F00800091F086001208D4908704FF4AE
:105880002F708C49086000208B4908608B490860A4
:105890007E480078804909780843824908600024DE
:1058A00012E04FF480618148143804F0ABF801280D
:1058B00005D183480078401C8149087002E000202F
:1058C0007F490870601CC4B2042CEADB7C48007875
:1058D000022807DB7B4800787B4908700120794962
:1058E00008700AE076480078022806DA75480078E1
:1058F00075490870002073490870002073490870CA
:1059000073480078012876D16E480078012872D15A
:1059100070480078401C6F4908706F4800780A286A
:1059200002DB0A206C4908706B480078401C6A4909
:10593000087068480078142802DB14206549087054
:10594000FCF71CFB40B163480078142804DBFCF72B
:1059500086FAFCF72CF902E00020604908706048E4
:105960000078012803D1FCF7E1F8FCF79EF85D48C8
:105970000078401C5B490870084600783C280EDD22
:10598000002059490870574908704E48007801288E
:1059900005D153480078012801D1FBF7CDFF5348CA
:1059A0000078012807D052480078012803D05148D8
:1059B0000078012820D150480078401C4E490870DA
:1059C000087800EBD0714910A0EB41014A4A1170F0
:1059D0001046007830B93548006840F4007033490B
:1059E00008601FE03148001F006840F400702F4934
:1059F000091F086016E019E039480078012808D12D
:105A00002A48001F006840F400702849091F0860F8
:105A100008E03348007828B92448006840F4007052
:105A20002249086000202A4908700BE025480078C8
:105A300040B90020314908601C48006840F40070FB
:105A40001A4908601F480078012865D12C48007861
:105A5000012861D12B480078012855D1FBF72DFF93
:105A600000202849087054E06C0200202401002026
:105A70002C000020300000203400002038000020DE
:105A8000C40000207C020020AB000020F6010020B2
:105A90004A010020F5010020530100204B010020A5
:105AA000040200209C0000203F0100201408014057
:105AB0002D0100203801002028010020D000002006
:105AC0004501002043010020440100205201002034
:105AD000500100204901002076010020AE00002086
