:020000040800F2
:1000000088140020A9010008296700083567000846
:10001000416700084D6700085967000800000000AC
:1000200000000000000000000000000071670008F0
:1000300065670008000000007D6700088967000808
:10004000356C0008396C00083D6C0008416C0008F4
:10005000456C0008496C00084D6C0008516C0008A4
:10006000556C0008596C00085D6C0008BF01000861
:10007000BF010008BF010008BF010008BF01000860
:10008000BF010008BF010008BF010008816C000823
:10009000856C0008896C00088D6C0008916C000864
:1000A000956C0008996C00089D6C0008A16C000814
:1000B000A56C0008A96C0008AD6C0008B16C0008C4
:1000C000B56C0008B96C0008BD6C0008C16C000874
:1000D000C56C0008C96C0008CD6C0008D16C000824
:1000E000D56C0008D96C0008DD6C000800F002F83F
:1000F00000F04BF80AA090E8000C82448344AAF177
:100100000107DA4501D100F040F8AFF2090EBAE874
:100110000F0013F0010F18BFFB1A43F0010318473B
:10012000F4A9000004AA00000A444FF0000C10F8E3
:10013000013B13F0070408BF10F8014B1D1108BF65
:1001400010F8015B641E05D010F8016B641E01F805
:10015000016BF9D113F0080F1EBF10F8014BAD1C55
:100160000C1B09D16D1E58BF01F801CBFAD505E073
:1001700014F8016B01F8016B6D1EF9D59142D6D3CD
:1001800070471FB51FBD10B510BD09F0DDFD11464C
:10019000FFF7F7FF04F06EFC09F0FBFD03B4FFF777
:1001A000F2FF03BC09F000FE08480047FEE7FEE747
:1001B000FEE7FEE7FEE7FEE7FEE7FEE7FEE7FEE717
:1001C00003480449044A054B70470000ED0000084D
:1001D0008806002088140020880C0020880C00204D
:1001E000FC48006805282CD9FA480068B0F5487F1B
:1001F00027D2F9480078002823D1F8480168F5484B
:1002000000680A3081427DD3F5480068B0F5617F0F
:1002100018D1F448006840F01000F2490860F24834
:10022000006840F00800F04908600120EA490870C1
:1002300040F22620ED4908600020ED490860E849B9
:10024000086045E3E6480068B0F5167F18D1E54838
:10025000006840F01000E3490860E348006840F09F
:100260000800E14908600120DB4908704FF4E170A3
:10027000DE4908600020DE490860D949086027E3AC
:10028000D7480068B0F5967F18D1D648006840F08E
:100290001000D4490860D448006840F00800D249F2
:1002A00008600120CC4908704FF4AF70CF49086056
:1002B0000020CF490860CA49086009E3CB480068BC
:1002C0000228BED2CB4800680028BAD1C5480068D1
:1002D00040F01000C3490860C348006840F00800BF
:1002E000C14908600120BC49087040F22620BF497E
:1002F00008600020BE490860B94908600120BD4976
:10030000086000E002E0BC490860E1E2B348006830
:10031000B0490968884262D30020B8490860B549ED
:100320000860AF480068B0F5617F18D1AD4800683B
:1003300040F01000AB490860AB48006840F008008E
:10034000A94908600120A449087040F22620A74965
:1003500008600020A6490860A1490860B8E2A048EA
:100360000068B0F5167F18D19E48006840F0100074
:100370009C4908609C48006840F008009A49086061
:100380000120954908704FF4E170984908600020F9
:1003900097490860924908609AE291480068B0F570
:1003A000967F18D18F48006840F010008D49086092
:1003B0008D48006840F008008B490860012086499C
:1003C00008704FF4AF7089490860002088490860C0
:1003D000834908607CE200208149086078E20020BF
:1003E000844908607B4800687C490968401A72D0DB
:1003F0007848006879490968401A05286BD20020BE
:100400007E49086076480068B0F5617F19D175486B
:10041000006840F01000734908607348006840F0BD
:1004200008007149086001206B4908704FF496700C
:100430006E49086000206E4908604FF49670684964
:10044000086067480068B0F5167F18D165480068F5
:1004500040F01000634908606348006840F00800FD
:100460006149086001205C49087082205F4908608A
:1004700000205F4908604FF4967059490860584859
:100480000068B0F5967F03D155480068544908606C
:100490005348006800289DD15248001D006840F074
:1004A00010005049091D08604F48001F006840F0C7
:1004B00008004D49091F0860012047490870E620DF
:1004C0004A49086000204A4908604FF49670444940
:1004D0000860FDE1FFE73F48006840490968401AAD
:1004E000052875D33B4800683C490968401A0A282A
:1004F0006ED200204149086039480068B0F5617F3C
:1005000018D13848006840F0100036490860364875
:10051000006840F008003449086001202E49087046
:10052000F020324908600020314908604FF416700D
:100530002B4908602A480068B0F5167F03D14FF4B4
:1005400016702749086026480068B0F5967F1CD1D0
:100550002448001D006840F010002249091D086071
:100560002148001F006840F008001F49091F08606B
:1005700001201949087096201C49086000201C4978
:1005800008604FF416701649086015480068002886
:100590009FD11448001D006840F010001149091D4A
:1005A00008601148001F006840F008000E49091F4C
:1005B00008600120084908704FF4B4700B490860C6
:1005C00000200B4908604FF41670054908607FE170
:1005D00016E00000C000002029010020BC0000201F
:1005E000CC00002010080140140C01403401002010
:1005F00024010020E8010020EC010020F00100208F
:10060000FE480068FE490968401A0A286BD3FB4877
:100610000068FB490968401A0F2864D2F94800684D
:10062000B0F5617F03D14FF46170F6490860F54879
:100630000068B0F5167F18D1F348006840F010004C
:10064000F1490860F148006840F00800EF4908608F
:100650000120EF490870FA20EE4908600020EE49B9
:1006600008604FF46170E7490860E6480068B0F53B
:10067000967F19D1E448006840F01000E249086014
:10068000E248006840F00800E04908600120E049C5
:1006900008704FF4C870DF4908600020DE49086028
:1006A0004FF46170D7490860D648006800288ED1A1
:1006B000D548006840F01000D3490860D34800686E
:1006C00040F00800D14908600120D149087040F28B
:1006D0002620D04908600020CF4908604FF461709F
:1006E000C8490860F4E0C5480068C5490968401A6F
:1006F0000F287DD3C3480068B0F5167F1AD14FF498
:100700006170C0490860C048006840F01000BE49F0
:100710000860BE48006840F00800BC49086001203D
:10072000BB4908704FF4AF70BA4908600020BA495D
:100730000860CDE0B3480068B0F5967F1AD14FF459
:100740006170B0490860B048006840F01000AE49E0
:100750000860AE48006840F00800AC49086001201D
:10076000AB4908704FF4E170AA4908600020AA491B
:100770000860ADE0A3480068D0B94FF46170A149AA
:100780000860A148006840F010009F4908609F4839
:10079000006840F008009D49086001209C490870ED
:1007A00040F226209B49086000209B4908608FE0AA
:1007B0004FF461709349086096480068022824D27B
:1007C00096480068002820D18F48006840F010004B
:1007D0008D4908608D48006840F008008B4908602A
:1007E00001208B49087040F226208A49086000E009
:1007F0000CE00020884908604FF46170814908606E
:100800000120864908608649086061E07D480068EB
:10081000B0F5167F1AD14FF461707A4908607A48B2
:10082000006840F01000784908607848006840F09F
:100830000800764908600120754908704FF4AF70D0
:100840007449086000207449086041E06D48006800
:10085000B0F5967F1AD14FF461706A4908606A4812
:10086000006840F01000684908606848006840F07F
:100870000800664908600120654908704FF4E1707E
:100880006449086000206449086021E05D48006810
:10089000D0B94FF461705B4908605B48006840F074
:1008A0001000594908605948006840F0080057494D
:1008B000086001205649087040F22620554908601A
:1008C00000205549086003E04FF461704D4908600D
:1008D0007047544909680A22B1FBF2F0524909688D
:1008E00081421ED25049096832291AD34F490978EA
:1008F000012916D04E490978012912D04A490968C0
:10090000B1F54D7F0DD24049091F096841F480714E
:100910003D4A121F11600121464A1170464A11706A
:100920000AE03949096841F48071374A11600021B1
:10093000404A1170404A11707047404A117801EBEB
:10094000D1725210A1EB4202002A55D13C493D4AD6
:10095000127801EB02118A683A490978491E384B2E
:1009600003EB011189688A4247D91946354A127842
:1009700001EB02118A6833490978491E03EB011122
:100980008968511A01EB810149001A462D4B1B78E9
:1009900002EB031212685200B1FBF2F12A4A116015
:1009A0002A490968012202EB4101274A1268514392
:1009B000244A1278521E224B03EB0212926802EB79
:1009C000820201EB42001F490978491E1A4602EBD8
:1009D0000111896801EB81011D4A1268B2EB410FD8
:1009E00048D818490978491E1A4602EB011189684E
:1009F00001EB810149002DE0DAE061E0C000002058
:100A0000BC000020CC00002014080140100C014064
:100A1000290100203401002024010020F0010020E1
:100A2000F40100203800002028000020AE00002043
:100A3000AC0000201801002019010020A0000020B7
:100A400080030020A1000020440000201C000020A2
:100A50003C000020F94A1160F9490968012202EBC3
:100A60004102F6490968F74B1B6803FB0211F34A80
:100A7000116021E0F449F54A127801EB021189680E
:100A800001EB8101ED4A1268B2EB410F0ED3EE4942
:100A9000EE4A127801EB0211896801EB81014900ED
:100AA000E64A11600021E74A116005E0E349096860
:100AB000814201D2E14908600121E54A117085E0D7
:100AC000E2490978491EE04A02EB01118968DF4BCF
:100AD0001B7802EB03129268891A01EB81014A002C
:100AE000D949DA4B1B7801EB031109684900B2FBC5
:100AF000F1F1D44A1160D2490968012202EB4101A7
:100B0000D04A12685143D14A1278521ECE4B03EBA1
:100B10000212926802EB8202C1EB4200CB490978D3
:100B2000491E1A4602EB0111896801EB8101C34A93
:100B30001268B2EB410F19D3C4490978491E1A460D
:100B400002EB0111896801EB81014900BB4A116088
:100B5000BB490968012202EB4102B8490968B94B57
:100B60001B6803FB1211B54A11601DE0B649B74A74
:100B7000127801EB0211896801EB8101AF4A12681A
:100B8000B2EB410F0ED8B049B04A127801EB021116
:100B9000896801EB81014900A84A11600021A94A36
:100BA000116001E0A54908600021A94A11700DE01B
:100BB000A549A64A127801EB0211896801EB81016F
:100BC00049009E4A116000219E4A11607047A14A67
:100BD000117801EBD1725210A1EB4202002A7DD1B3
:100BE00099499A4A127801EB02114A6897490978A3
:100BF000491E954B03EB011149688A427ED919467B
:100C0000924A127801EB02114A6890490978491E0C
:100C100003EB01114968511A01EB810149001A46A1
:100C20008A4B1B7802EB031212685200B1FBF2F1FF
:100C3000894A116082490968012202EB4101864A12
:100C400012685143814A1278521E7F4B03EB021205
:100C5000526802EB820201EB42007C490978491E8E
:100C60001A4602EB0111496801EB81017B4A1268C7
:100C7000B2EB410F19D875490978491E1A4602EBA3
:100C80000111496801EB81014900744A11606C4906
:100C90000968012202EB4102704909686E4B1B682A
:100CA00003FB02116D4A116024E06749674A12781C
:100CB00001EB0211496801EB8101684A1268B2EB4D
:100CC000410F11D36049614A127801EB0211496862
:100CD00001EB81014900614A116001E086E00DE00D
:100CE00000215D4A116005E05C490968814201D23A
:100CF0005A49086001215A4A117085E05349097820
:100D0000491E514A02EB01114968504B1B7802EB16
:100D100003125268891A01EB81014A004A494B4B80
:100D20001B7801EB031109684900B2FBF1F14A4A53
:100D3000116043490968012202EB4101464A1268E9
:100D40005143424A1278521E3F4B03EB0212526843
:100D500002EB8202C1EB42003C490978491E1A4667
:100D600002EB0111496801EB81013C4A1268B2EBC8
:100D7000410F19D335490978491E1A4602EB011172
:100D8000496801EB81014900344A11602C49096826
:100D9000012202EB4102314909682F4B1B6803FB1A
:100DA00012112E4A11601DE02749284A127801EBE2
:100DB0000211496801EB8101284A1268B2EB410F28
:100DC0000ED82149214A127801EB0211496801EB42
:100DD00081014900214A116000211F4A116001E090
:100DE0001E49086000211E4A11700DE01649174A7D
:100DF000127801EB0211496801EB81014900174AA1
:100E000011600021144A1160704710B5002011E0F4
:100E10001449095C0A2291FBF2F21249095C0A2387
:100E200091FBF3F403FB141162F31F110D4A1154EB
:100E3000411CC8B20528EBDB0020CFE03C000020BD
:100E40001C0000204400002080030020A10000209E
:100E50009D000020A000002040000020380000205D
:100E60009C000020D9000020FE4901EB0011096818
:100E70006422B1FBF2F10902FA4A02EB0012126895
:100E80006423B2FBF3F403FB14220A23B2FBF3F254
:100E900001EB0211F34A02EB00121268B2FBF3F409
:100EA00003FB142202F00F021144EE4A02EB00127F
:100EB0001160EC4901EB00110978EA4A02EB0012DB
:100EC0001160E84901EB001149686422B1FBF2F1BD
:100ED0000902E44A02EB001252686423B2FBF3F405
:100EE00003FB14220A23B2FBF3F201EB0211DD4AE9
:100EF00002EB00125268B2FBF3F403FB142202F07F
:100F00000F021144D74A02EB00125160D54901EBA0
:100F100000118988C1F30B01D24A02EB0012516023
:100F2000D04901EB001189686422B1FBF2F109029A
:100F3000CC4A02EB001292686423B2FBF3F403FB89
:100F400014220A23B2FBF3F201EB0211C54A02EBB1
:100F500000129268B2FBF3F403FB142202F00F02BA
:100F60001144C04A02EB00129160BE4901EB00112E
:100F70000989C1F30B01BB4A02EB00129160B94928
:100F800001EB0011C9686422B1FBF2F10902B54A14
:100F900002EB0012D2686423B2FBF3F403FB1422C9
:100FA0000A23B2FBF3F201EB0211AE4A02EB00128C
:100FB000D268B2FBF3F403FB142202F00F021144D7
:100FC000A84A02EB0012D160A64901EB0011097B8F
:100FD000A44A02EB0012D160411CC8B20A28FFF6F5
:100FE00043AFA14949696422B1FBF2F109029E4A6B
:100FF00052696423B2FBF3F403FB14220A23B2FB0D
:10100000F3F201EB0211984A5269B2FBF3F403FBCD
:10101000142202F00F021144934A51611146898A49
:10102000C1F30B0151619149097839B3012949D0C4
:1010300003296BD18E490978F9B98E490978491C81
:10104000C8B218E0AA21874A02EB0012116040F6EC
:10105000AA21844A02EB00125160824A02EB00127C
:1010600091600021844A1154AA217E4A02EB0012A9
:10107000D160411CC8B20A28E4DB48E07F49097806
:10108000F9B97F490978491CC8B218E0AA21754A04
:1010900002EB0012116040F6AA21724A02EB001224
:1010A0005160704A02EB001291600021724A1154A3
:1010B000AA216C4A02EB0012D160411CC8B20A2876
:1010C000E4DB24E06D490978F9B96E490978491CD7
:1010D000C8B218E0AA21634A02EB0012116040F680
:1010E000AA21604A02EB001251605E4A02EB001234
:1010F00091600021604A1154AA215A4A02EB001261
:10110000D160411CC8B20A28E4DB00E000BF00BF88
:1011100010BD2DE9F0475C4800785C4909788842A9
:1011200007D15B480068504908605A480068486029
:1011300006E0594800684C49086058480068486013
:10114000574800680A21B0FBF1F0474988605548CC
:1011500000680A21B0FBF1F04349C8600846C06846
:10116000514908604FF0000900240BE04F4800EBA4
:10117000041000684D4901EB0411C968084481441A
:10118000601CC4B23F4800788442EFDB48480068E6
:1011900081444848C0F800900068334948613348AA
:1011A0000078052841D1444800681E2802D200205A
:1011B00041490860414800681E2802D200203F498A
:1011C00008603F4800681E2802D200203C490860A1
:1011D0003948006809F0EFF907463A4A3A4B09F0F6
:1011E000FDF9054609F0BAF91F490860334800685F
:1011F00009F0E1F90546334A334B09F0EFF90746A8
:1012000009F0ACF9184948602D48006809F0D3F995
:1012100005462C4A2C4B09F0E1F9074609F09EF9E6
:1012200011498860294800684861104800780728FB
:101230000CD1274800680C4908602648006800EB7C
:1012400080004000486040F27520C8600748007880
:10125000082845D11E480068034908601D480068F9
:101260003AE00000C0040020B8020020480000203E
:101270009F000020A2000020000300209E0000200C
:10128000A3000020A1000020B7000020A70000203C
:10129000280000202C000020300000203400002016
:1012A000380000203C000020BC000020800300200B
:1012B0001C00002014000020640000206C000020AE
:1012C00074000020CDCCCCCCCCCC0040C40100209C
:1012D000CC010020D401002000EB800040004860D9
:1012E000FE480078FE49C861FE48007800286FD0AB
:1012F000012848D0032802D004286AD1F6E000244F
:1013000006E0F94810F82400F8490855601CC4B2FA
:10131000052CF6DB1020F649087048708870C870FC
:101320001120F44A12788854F3480078012808D133
:101330000020087048708870C8701120ED4A12783B
:101340008854002404E00020EC490855601CC4B215
:10135000142CF8DB0120E949E94A1278885400246A
:1013600006E00020E7490855E7490855601CC4B26B
:101370000A2CF6DB0220E549087048700320E44A95
:1013800012788854DAE0002406E0E24810F82400DD
:10139000D6490855601CC4B2052CF6DB0020D449A0
:1013A000087048708870C8701120DB4A1278885421
:1013B000002404E00020D1490855601CC4B2142C5C
:1013C000F8DB0121CD48CE4A12788154002408E090
:1013D00049E0B2E00020CB490855CB490855601CD4
:1013E000C4B20A2CF6DBC6480078012803D10020DD
:1013F000CA49087018E0C249087800EBD07149105A
:10140000A0EB410139B9BE49087800EBD071491011
:10141000C24A117008E0BA490978481E00EBD07141
:10142000C1F34701BD4A11700121B648BB4A127889
:1014300081540120B449B94A127888540020B34934
:1014400008704870B648007838B10320B54909786B
:1014500081F00101AD4A505404E00320AB49B14A88
:10146000127888546AE0002406E0AA4810F82400A4
:101470009E490855601CC4B2052CF6DB10209C491F
:10148000087048708870C8701120A34A1278885478
:10149000002404E0002099490855601CC4B2142CB3
:1014A000F8DB01219548964A12788154002406E021
:1014B00000209449085594490855601CC4B20A2C70
:1014C000F6DB02209149087048709548007838B1E1
:1014D00003209449097881F001018C4A505404E0BA
:1014E00003208A498F4A1278885427E0002406E0B6
:1014F0007D4810F824007D490855601CC4B2052CB5
:10150000F6DB89480068764908608748406848608B
:10151000854880680A21B0FBF1F0714988608248F3
:10152000C0680A21B0FBF1F06D49C8607F480068CF
:1015300048617F480078C86100E000BF00BF69488B
:101540000078032826D1002421E07A4800EB04101B
:101550000068794901EB04110860764800EB04103B
:101560004068754901EB04114860724800EB0410B3
:101570008068714901EB041188606E4800EB04102B
:10158000C0686D4901EB0411C860601CC4B20A2C2C
:10159000DBDB25E0002421E0684800EB0410006854
:1015A000654901EB04110860644800EB04104068D1
:1015B000614901EB04114860604800EB0410806849
:1015C0005D4901EB041188605C4800EB0410C068C1
:1015D000594901EB0411C860601CC4B20A2CDBDB62
:1015E0004749087800EBD0714910A0EB410129B9B7
:1015F0000120534908700020487004E00020504941
:101600000870012048704F4800784D4988704E4856
:10161000007808714D4800784D49097808434849D9
:10162000C8704C48007848714B4800684B490968BD
:10163000884203D300204249887102E001204049DA
:10164000887100203E49C87145480078C0F34000C9
:1016500008724348007800F001004872002412E04C
:10166000354800EB041080680A21B0FBF1F201FB61
:10167000120018B101203B49085502E00020394909
:101680000855601CC4B20A2CEADB1D49087800EB3F
:10169000D0714910A0EB4101F1B928481F490978E0
:1016A00000EB0110006830490968884260D923487E
:1016B0001A49097800EB0110006800EB8000400037
:1016C0002949096801EB8101A0EB4100274909780C
:1016D000401A034908619EE04EE049E038010020CD
:1016E000B80200204800002028030020D900002074
:1016F000D10000209F00002049000020D8020020D7
:10170000A0000020EC020020F6020020DE000020F5
:10171000A8000020140300209E000020A10000204B
:10172000B9000020A70000203C0300201800002082
:101730003901002020040020C00400208003002084
:101740000A030020A9000020AC000020AE00002009
:10175000AA00002018010020BC000020C0000020CA
:101760001C010020000300201C0000202400002099
:101770000020FE4908614EE0FD48FE49097800EB73
:1017800001100068FC490968884214D9F848F949F1
:10179000097800EB01100068F74908601020F7494C
:1017A0000860F5480068C0B2F549086007F042F9E2
:1017B000042005F023FDEE48EE49097800EB011006
:1017C0000068EB49EB4A127801EB0211C968084442
:1017D000E949096888421BD9E548E649097800EBE0
:1017E00001100068E249E34A127801EB0211C9686E
:1017F000084400EB80004000DF49096801EB8101EB
:10180000A0EB4100DF490978401AD849086102E09D
:101810000020D6490861DC480068D4498861084640
:1018200080696421B0FBF1F00002D049896964222B
:10183000B1FBF2F302FB13110A22B1FBF2F100EB50
:101840000110CA498969B1FBF2F302FB131101F0DF
:101850000F010844C5498861FFF7D7FABDE8F08752
:10186000F0B589B007460D46C8480068C8284CD86E
:10187000C748406800020190C549019809680844BA
:101880000190C348C06800020290C149029889686B
:1018900008440290BE48007C0390BE480068049053
:1018A000BD4800680590BD4800680690BC480068C7
:1018B0000790BC480078BC4909780844BB490978BE
:1018C000491C8840BA490978891C8840C0000890A2
:1018D000322107FB01F04FF4B47101EB801000EBF3
:1018E000051600240FE006EB4400A449086001A897
:1018F00050F82400A249086007F09CF8052005F084
:101900007DFC601CC4B2082CEDDB09B0F0BDA94819
:10191000007801281FD1A1480068A7490968084438
:101920009E49086092489349097800EB011040688D
:1019300000EB800099490968B1EB400F2AD98C4827
:101940008C49097800EB0110406800EB80004000F2
:10195000924908601EE09148006897490968401A5A
:101960008E49086082488349097800EB011040687D
:1019700000EB800089490968B1EB400F0AD27C482E
:101980007C49097800EB0110406800EB80004000C2
:10199000824908608948007801281FD18048006882
:1019A0008749096808447E49086071487149097887
:1019B00000EB0110806800EB800079490968B1EB09
:1019C000400F2AD96A486B49097800EB01108068FA
:1019D00000EB80004000724908601EE0704800681B
:1019E00077490968401A6E49086061486149097879
:1019F00000EB0110806800EB800069490968B1EBD9
:101A0000400F0AD25A485B49097800EB0110806800
:101A100000EB800040006249086070476148007830
:101A200088B96848007870B95F48007858B9664846
:101A3000006840F0040064490860012063490870B0
:101A40006349087015E06048001D006840F004001C
:101A50005D49091D086000205C4908705C490870F8
:101A60005C48006840F480705A49086000205A4978
:101A70000870704759480078012802D0584800780B
:101A800028B90020574908700A205749087057485C
:101A900000681E280ED2564800681E280AD25548F3
:101AA00000681E2806D200204E4908700A204E49C0
:101AB000087044E04D480068552803D24C4800683F
:101AC00055280FD349480068552803D24948006873
:101AD000552807D347480068552814D24448006861
:101AE000552810D201203F4908704348007818B1AA
:101AF00041480078022822D138480078F8B91E20E1
:101B0000394908701BE039480068552817D938480A
:101B10000068552813D93748006855280FD9022086
:101B2000304908703448007818B1334800780128EB
:101B300005D12A48007810B91E202B490870294881
:101B400000782D490870704710B52C48006800EBEC
:101B5000800044000D2007F0F6FB29490860084684
:101B60000068A04252D9012026494DE0B802002069
:101B700080030020A10000201C000020EC000020B9
:101B8000F0000020240000205C0000201400002051
:101B900014030020280000202C0000203800002022
:101BA0003C000020AE000020AC000020D50000204A
:101BB000D60000209C000020400000209D00002056
:101BC00044000020AB000020101401401B01002045
:101BD0003E0100201408014018010020B10000203F
:101BE000480000201C0100201E010020640000208D
:101BF0006C000020740000201D010020D80100208E
:101C0000E0010020A4010020086002E00020FE495D
:101C1000086010BD10B5FD4800780C2190FBF1F272
:101C200001FB1200F949087008460078401C087052
:101C3000F748007810B9F748007838B1F3480078D1
:101C4000012803D11B2007F028FC18E0F248406867
:101C500040F2523188420BD0EF488068884207D06A
:101C6000ED48C068884203D0EB480068884206D13E
:101C7000E6480078012802D11B2007F00EFCE74857
:101C8000007830B1E1480078022802D1182007F02E
:101C900004FCE348007830B1DC480078032802D126
:101CA000152007F0FAFBDF48007830B1D7480078FC
:101CB000042802D1152007F0F0FBDB48007830B192
:101CC000D2480078052802D1162007F0E6FBD74855
:101CD000007848B1CD480078062805D1192007F0D2
:101CE000DCFB0020D1490870D148007848B1C748D2
:101CF0000078072805D11A2007F0CFFB0020CC4937
:101D00000870CC48007848B1C0480078082805D150
:101D1000212007F0C2FB0020C6490870C6480078A1
:101D200048B1BA480078092805D11C2007F0B5FB56
:101D30000020C1490870C148007848B1B348007814
:101D40000A2805D11D2007F0A8FB0020BB49087018
:101D5000BB48007848B1AD4800780B2805D11E205B
:101D600007F09BFB0020B6490870B648007848B1E0
:101D7000A64800780C2805D11F2007F08EFB002014
:101D8000B049087010BDB04800680A21B0FBF1F0FE
:101D90000A30AE490968884210D2AD4800789628CA
:101DA00005DAAB480078401CA94908700BE0012017
:101DB000A34908700020A649087004E00020A44947
:101DC00008709F490870A04800680A21B0FBF1F034
:101DD0000A389E490968884210D99E48007896289A
:101DE00005DA9C480078401C9A4908700BE00120F5
:101DF0009449087000209749087004E00020954934
:101E00000870904908707047934800680A21B0FB39
:101E1000F1F0143091490968884210D29048007856
:101E2000962805DA8E480078401C8D4908700BE032
:101E300001208149087000208949087004E00020D1
:101E4000874908707C490870834800680A21B0FB04
:101E5000F1F0143881490968884210D98148007826
:101E6000962805DA7F480078401C7E4908700BE010
:101E700001207249087000207A49087004E00020AF
:101E8000784908706D490870704710B57648006849
:101E90001E280DD2754800681E2809D274480068B3
:101EA0001E2805D201205D4908707249087002E0C1
:101EB00000205A4908706C4800681E2802D2002091
:101EC000694908606A4800681E2802D200206849F3
:101ED0000860664800681E2802D200206349086036
:101EE00065480078032861DA5F4800680B2803D250
:101EF0005E4800684B283DD25B4800684B2803D3FE
:101F00005A4800680B2835D3574800684B2803D33C
:101F1000574800680B282DD3554800684B2803D339
:101F2000514800680B2825D3504800685349096878
:101F300008444D49096888421CD34B4800684F4902
:101F40000968084449490968884213D34848006829
:101F50004A4909680844193043490968884209D345
:101F600041480068454909680844193040490968F2
:101F7000884218D22B480078A0B94148006801284F
:101F800014D140480078032810DA01202549087050
:101F900000203C4908703C480078012806D11520F3
:101FA00007F07BFA02E00020364908702E480068EE
:101FB0003649096888420CD82D48016833480068C2
:101FC0003230814205D82948006830490968884282
:101FD0007ED92548006840F28A21884207D22448E9
:101FE0000068884203D221480068884206D3002056
:101FF0000D49087026490870264908702548007860
:102000000F284EDA234847E0A40100203D010020BC
:102010004F0100200302002098020020B1000020A0
:10202000AA000020AE000020AC000020D500002057
:10203000D600002050010020B3000020B400002092
:10204000B5000020B60000203C0000202C0000203D
:1020500062010020630100203800002028000020D9
:102060006001002061010020640000207400002055
:102070006C000020450100201E0100208800002087
:1020800080000020B00000203F01002084000020DC
:10209000AF000020AD0000200078401CFE49087011
:1020A0000EE0FE48007858B9FD48007840B901209C
:1020B000FA4908700020FB490870162007F0EDF976
:1020C000F9480078012807DAF7480078401C00E05A
:1020D00016E0F549087018E0F0480078A8B9F04813
:1020E000007890B9F148007803280EDA0120EC4915
:1020F00008700020EB490870152007F0CEF904E0C5
:102100000020E9490870E449087010BD10B5E8489E
:102110000068E8490968884205D2E5480068E64950
:102120000968884263D2E54800783C280ADAE34827
:102130000078401CE14908700020E1490870E1493D
:1021400008702AE00120E0490870D9480068D949A0
:102150000968884208D3DA48007828B90120D849AC
:102160000870192007F099F9D1480068D249096828
:10217000884208D2D348007828B90120D149087094
:102180001A2007F08AF9CA480068B0F5257F04D9FB
:102190000020CD490870C6490860C74800680A3861
:1021A000C349096888420AD9C148006838B13C204F
:1021B000C24908700120C3490870C3490870BC486F
:1021C0000068012802D80020BF490870B84801689B
:1021D000B84800680A30814226D30120B849087007
:1021E0003C20B64908700120B74908701CE0B0488F
:1021F0000068B0490968884216D2AD480068AE4907
:102200000968884210D3AD480078002805DDAB4846
:102210000078401EA949087006E00020AA4908700D
:10222000A7490870A749087010BD2DE9F041A748DB
:102230000078002866D107F03EF8A5490860A54857
:10224000006878B940F69800A2490860084600681E
:1022500000EB40009E490968C1EBC10108449C495C
:10226000086018E09B48006800EB40009849096846
:10227000C1EBC1010844964908600846006808F0AF
:102280009AF90646944A954B08F0A8F9044608F0D6
:1022900065F9904908608E48006808F08CF9064698
:1022A0008F4A904B08F09AF9044608F057F9804994
:1022B000086008460068502801D2002008607C4869
:1022C0000068F02804D97A480068401D7849086001
:1022D0000A2007F038F8844908608448006800EB59
:1022E00040000968C1EBC10108440A21B0FBF1F0CC
:1022F0007D490860084600687C49086000207C49E8
:10230000086032E07148007801282ED10C2007F0D7
:102310001AF8784908607848006800EB40000968BE
:10232000C1EBC10108440A21B0FBF1F0714908601A
:1023300008460068704908600B2007F004F86F49F0
:1023400008606F48006800EB40000968C1EBC101FC
:1023500008440A21B0FBF1F06849086008460068AB
:102360006749086001206249086058480078401CAD
:102370005649087008460078012804DD00200870DE
:102380000120BDE8F0810020FBE7F0B589B00746E9
:102390000D465C480078322148434FF4B47101EB9C
:1023A000801000EB0516002410E0022000FB046002
:1023B0005549086006F04FFB052004F01FFF534805
:1023C000006801A941F82400601CC4B2082CECDBB1
:1023D0000198C0B24E4908600198C0F307204860D8
:1023E0000298C0B288600298C0F30720C8600398C2
:1023F000C0B208614749049808600498282806D9A3
:102400000498B0F5487F02D20498086002E00020EA
:10241000404908600598282807D90598B0F5487FF5
:1024200003D23C490598486002E0002039494860E1
:102430003849069888600798C86009B0F0BD70B543
:102440000646002486E006EB8600000100EBC4058A
:1024500005F11E002C49086006F0FDFA2B480068C3
:102460002D4901EB04110860052004F072FE05F10E
:1024700020002549086006F0EEFA24480068264945
:1024800001EB04114860052004F063FE05F1220011
:102490001D49086042E00000AD000020AC000020B3
:1024A000AE00002052010020AF000020B00000204C
:1024B0005C00002050000020540000206401002037
:1024C000D5000020D6000020AB0000201C02002018
:1024D0007C000020600000209A9999999999B93F51
:1024E0007B14AE47E17A843F64000020680000203E
:1024F000800000206C00002070000020740000208C
:102500007800002039010020EC000020F0000020BD
:10251000280300203C0300202004002006F09BFA42
:10252000FE480068FE4901EB04118860052004F0B4
:1025300010FE05F12400FB49086006F08CFAF7480C
:102540000068F74901EB0411C860052004F001FEA2
:10255000601CC4B20A2CFFF676AF002421E0F048DC
:1025600000EB04100068F04901EB04110860EC482E
:1025700000EB04104068EC4901EB04114860E848A6
:1025800000EB04108068E84901EB04118860E4481E
:1025900000EB0410C068E44901EB0411C860601C42
:1025A000C4B20A2CDBDB70BD70B50020DF490870B7
:1025B000DF490870DF4908601820DA490860DC4804
:1025C0000178DA48007861F3DF10D44908600846E2
:1025D000006800020860D7480068C0B20968084473
:1025E000CE49086006F026FA042004F007FE002019
:1025F000D14908601020CB490860CF480068C0B2BC
:10260000C649086006F016FA042004F0F7FD12200F
:10261000C44908600220C149086006F00BFA042092
:1026200004F0ECFD00243BE01E2000EBC405BD4897
:102630000560C24800EB04100068B849086006F065
:10264000F9F9052004F0DAFDA81CB6490860BB487A
:1026500000EB04104068B149086006F0EBF9052072
:1026600004F0CCFD281DAF490860B44800EB04100D
:102670008068AA49086006F0DDF9052004F0BEFD77
:10268000A81DA8490860AD4800EB0410C068A34924
:10269000086006F0CFF9052004F0B0FD601CC4B25C
:1026A0000A2CC1DB00243DE0502000EBC40000F107
:1026B0001E059C480560A24800EB0410006897497D
:1026C000086006F0B7F9052004F098FDA81C9549AC
:1026D00008609B4800EB041040689049086006F0D1
:1026E000A9F9052004F08AFD281D8E490860944848
:1026F00000EB041080688949086006F09BF905200A
:1027000004F07CFDA81D874908608D4800EB04108B
:10271000C0688249086006F08DF9052004F06EFD5E
:10272000601CC4B20A2CBFDB00243DE0A02000EBFB
:10273000C40000F11E057B480560824800EB0410D0
:1027400000687649086006F075F9052004F056FD2A
:10275000A81C744908607B4800EB041040686F496E
:10276000086006F067F9052004F048FD281D6D4952
:102770000860744800EB041080686849086006F03F
:1027800059F9052004F03AFDA81D664908606D4816
:1027900000EB0410C0686149086006F04BF90520A1
:1027A00004F02CFD601CC4B20A2CBFDB00243DE009
:1027B000F02000EBC40000F11E055A480560624895
:1027C00000EB041000685549086006F033F9052055
:1027D00004F014FDA81C534908605B4800EB04108A
:1027E00040684E49086006F025F9052004F006FD12
:1027F000281D4C490860544800EB04108068474984
:10280000086006F017F9052004F0F8FCA81D4549FA
:1028100008604D4800EB0410C0684049086006F0AD
:1028200009F9052004F0EAFC601CC4B20A2CBFDBE5
:1028300000203C49086045480078112101EB002048
:102840003649086006F0F6F8052004F0D7FC0020B1
:10285000344908603E49086006F0FDF82F480088BA
:10286000000A3A490870084600780A2801DB00206F
:1028700008702A48007800F00F00364908700846B2
:102880000078032801DD0120087024480078C0F397
:1028900003103149087008460078012801DD012045
:1028A00008702D4800782D49087002202C490860D6
:1028B00070BD70B50646002464E006EB860000019A
:1028C00000EBC40000F11E0516480560144800EB3B
:1028D000041000681149086006F0ACF8052004F007
:1028E0008DFCA81C0F4908600D4800EB04104068DF
:1028F0000A49086006F09EF8052004F07FFC281DB8
:1029000008490860064800EB041080680349086025
:1029100006F090F8052004F071FC23E0F0000020A0
:1029200020040020EC00002080030020A0000020F4
:102930005F010020140000201C000020B8A900083E
:1029400018A9000878A80008D8A7000838010020B6
:10295000E40000209E000020A7000020B700002017
:10296000C0010020A81DFA490860FA4800EB0410D5
:10297000C068F949086006F05DF8052004F03EFCE7
:10298000601CC4B20A2C98DB70BDF44800780328A0
:1029900010D1F3480078032859D1F248007805286F
:1029A0000DD1F1480068002805DDEF480068401EA1
:1029B000ED49086067E33B20EB49086063E3E948C1
:1029C000007804280DD1E8484068002805DDE64875
:1029D0004068401EE449486055E31720E2494860DA
:1029E00051E3E048007803280DD1DF4880680128D2
:1029F00005DDDD488068401EDB49886043E31F2019
:102A0000D94988603FE3D748007802280DD1D648DD
:102A1000C068012805DDD448C068401ED249C8609E
:102A200031E30C20D049C8602DE3CE48007801285E
:102A3000C0D1CD4800690D2805DDCB480069401E96
:102A4000C94908611FE31420C74908611BE3C44852
:102A500000780028AED0C24800780128AAD1C14829
:102A6000007801280FD1BB484068B0F58C7F05D9AC
:102A7000B84840680A38B749486004E34FF45C70CE
:102A8000B4494860FFE2B748007802280FD1B14846
:102A90008068B0F58C7F05D9AE488068401FAD498D
:102AA0008860F0E24FF45C70AA498860EBE2AD48C0
:102AB000007803280DD1A748C068012805D9A5488A
:102AC000C068401EA349C860DDE25820A149C86023
:102AD000D9E2A448007804280DD19E480069012855
:102AE00005D99C480069401E9A490861CBE25820EC
:102AF00098490861C7E29B48007805280FD195489E
:102B00004069B0F58C7F05D9924840690A389149EF
:102B10004861B8E24FF45C718E484161B3E291487C
:102B2000007806280FD18B488069B0F58C7F05D9D5
:102B300088488069401F87498861A4E24FF45C712E
:102B4000844881619FE28748007807280DD1814839
:102B5000C069012805D97F48C069401E7D49C86108
:102B600091E258217B48C1618DE27E4800780828B7
:102B70000DD17848006A012805D97648006A401EC0
:102B8000744908627FE25820724908627BE2754806
:102B9000007809280FD16F48406AB0F58C7F05D9BD
:102BA0006C48406A0A386B4948626CE24FF45C71C9
:102BB0006848416267E26B4800780A280FD165488F
:102BC000806AB0F58C7F05D96248806A401F6149F0
:102BD000886258E24FF45C715E48816253E261485A
:102BE00000780B280DD15B48C06A012805D95948E7
:102BF000C06A401E5749C86245E258215548C16223
:102C000041E2584800780C280DD15248006B012849
:102C100005D95048006B401E4E49086333E25820E6
:102C20004C4908632FE24F4800780D280FD14948DE
:102C3000406BB0F58C7F05D94648406B0A38454952
:102C4000486320E24FF45C71424841631BE245480F
:102C500000780E280FD13F48806BB0F58C7F05D9E6
:102C60003C48806B401F3B4988630CE24FF45C7129
:102C70003848816307E23B4800780F280DD135487A
:102C8000C06B012805D93348C06B401E3149C86369
:102C9000F9E158212F48C163F5E132480078102846
:102CA0000DD12C48006C012805D92A48006C401E23
:102CB00028490864E7E1582026490864E3E12948E7
:102CC000007811280FD12348406CB0F58C7F05D9CE
:102CD0002048406C0A381F494864D4E14FF45C71C5
:102CE0001C484164CFE11F48007812280FD11948D1
:102CF000806CB0F58C7F05D91648806C401F154953
:102D00008864C0E14FF45C7112488164BBE11548EE
:102D1000007813280DD10F48C06C012805D90D4843
:102D2000C06C401E0B49C864ADE158210948C1641C
:102D3000A9E10C48007814281CD10648006D012830
:102D400014D90448006D401E024908659BE100004B
:102D5000EC00002020040020F000002048000020AB
:102D6000A6000020A5000020280300205820F749D5
:102D7000086588E1F648007815280FD1F348406DC2
:102D8000B0F58C7F05D9F148406D0A38EF494865A8
:102D900079E14FF45C71ED48416574E1EC480078ED
:102DA00016280FD1E948806DB0F58C7F05D9E7482A
:102DB000806D401FE549886565E14FF45C71E3482B
:102DC000816560E1E248007817280DD1DF48C06DC9
:102DD000012805D9DD48C06D401EDC49C86552E1B7
:102DE0005821DA48C1654EE1D948007818280DD13C
:102DF000D648006E012805D9D448006E401ED3493C
:102E0000086640E15820D14908663CE1D048007886
:102E100019280FD1CD48406EB0F58C7F05D9CB482D
:102E2000406E0A38C94948662DE14FF45C71C748C5
:102E3000416628E1C64800781A280FD1C348806E41
:102E4000B0F58C7F05D9C148806E401FBF498866A8
:102E500019E14FF45C71BD48816614E1BC4800780B
:102E60001B280DD1B948C06E012805D9B748C06EDE
:102E7000401EB649C86606E15821B448C16602E161
:102E8000B34800781C280DD1B048006F012805D93F
:102E9000AE48006F401EAD490867F4E05820AB49CA
:102EA0000867F0E0AA4800781D280FD1A748406FB6
:102EB000B0F58C7F05D9A548406F0A38A34948670B
:102EC000E1E04FF45C71A1484167DCE0A048007884
:102ED0001E280FD19D48806FB0F58C7F05D99B4887
:102EE000806F401F99498867CDE04FF45C71974827
:102EF0008167C8E0964800781F280DD19348C06FBD
:102F0000012805D99148C06F401E9049C867BAE0B2
:102F100058218E48C167B6E08D480078202811D12D
:102F20008A48D0F88000012807D98848D0F8800066
:102F3000401E8649C1F88000A5E058208349C1F8A9
:102F40008000A0E082480078212813D17F48D0F883
:102F50008400B0F58C7F07D97C48D0F884000A380B
:102F60007A49C1F884008EE04FF45C717748C0F86C
:102F7000841088E076480078222813D17348D0F86E
:102F80008800B0F58C7F07D97048D0F88800401FC2
:102F90006E49C1F8880076E04FF45C716B48C0F868
:102FA000881070E06A480078232811D16748D0F86B
:102FB0008C00012807D96548D0F88C00401E634971
:102FC000C1F88C005FE058216048C0F88C105AE0CE
:102FD0005F480078242811D15C48D0F8900001287F
:102FE00007D95A48D0F89000401E5849C1F89000BF
:102FF00049E058205549C1F8900044E05448007811
:10300000252813D15148D0F89400B0F58C7F07D90A
:103010004E48D0F894000A384C49C1F8940032E088
:103020004FF45C714948C0F894102CE0484800788F
:10303000262813D14548D0F89800B0F58C7F07D9E1
:103040004248D0F89800401F4049C1F898001AE063
:103050004FF45C713D48C0F8981014E03C4800788B
:10306000272810D13948D0F89C00012807D93748C3
:10307000D0F89C00401E3549C1F89C0003E058215F
:103080003248C0F89C10704732480078032810D1AD
:1030900031480078032863D12D48007805280DD1E8
:1030A0002E4800683B2805DA2C480068401C2B4954
:1030B000086069E300202949086065E32448007836
:1030C00004280DD125484068172805DA23484068B0
:1030D000401C2249486057E300202049486053E3E0
:1030E0001B48007803280DD11C4880681F2805DA8A
:1030F0001A488068401C1949886045E30120174937
:10310000886041E31248007802280DD11348C06856
:103110000C2805DA1148C068401C1049C86033E328
:1031200001200E49C8602FE3094800780128C0D16A
:103130000A480069142805DA08480069401C074954
:10314000086121E30D20054908611DE320040020EA
:10315000A500002048000020A60000202803002031
:10316000F94800780028A4D0F74800780128A0D1B9
:10317000F648007801280FD1F5484068B0F55C7F2B
:1031800005D2F34840680A30F1494860FCE24FF448
:103190008C70EF494860F7E2EC48007802280FD1C4
:1031A000EB488068B0F55C7F05D2E9488068401D37
:1031B000E7498860E8E24FF48C70E5498860E3E213
:1031C000E248007803280DD1E148C068582805D2AC
:1031D000DF48C068401CDE49C860D5E20120DC49F8
:1031E000C860D1E2D948007804280DD1D8480069D8
:1031F000582805D2D6480069401CD5490861C3E269
:103200000120D3490861BFE2D048007805280FD1DA
:10321000CF484069B0F55C7F05D2CD4840690A309F
:10322000CB494861B0E24FF48C71C9484161ABE2CF
:10323000C648007806280FD1C5488069B0F55C7F84
:1032400005D2C3488069401DC14988619CE24FF4A2
:103250008C71BF48816197E2BC48007807280DD186
:10326000BB48C069582805D2B948C069401CB84954
:10327000C86189E20121B648C16185E2B34800789E
:1032800008280DD1B248006A582805D2B048006A13
:10329000401CAF49086277E20120AD49086273E241
:1032A000AA48007809280FD1A948406AB0F55C7F88
:1032B00005D2A748406A0A30A549486264E24FF443
:1032C0008C71A34841625FE2A04800780A280FD1C0
:1032D0009F48806AB0F55C7F05D29D48806A401D9A
:1032E0009B49886250E24FF48C71994881624BE2AD
:1032F000964800780B280DD19548C06A582805D209
:103300009348C06A401C9249C8623DE2012190483E
:10331000C16239E28D4800780C280DD18C48006BD1
:10332000582805D28A48006B401C894908632BE263
:1033300001208749086327E2844800780D280FD1CF
:103340008348406BB0F55C7F05D28148406B0A3002
:103350007F49486318E24FF48C717D48416313E262
:103360007A4800780E280FD17948806BB0F55C7FE1
:1033700005D27748806B401D7549886304E24FF49D
:103380008C7173488163FFE1704800780F280DD17C
:103390006F48C06B582805D26D48C06B401C6C4903
:1033A000C863F1E101216A48C163EDE16748007833
:1033B00010280DD16648006C582805D26448006C6E
:1033C000401C63490864DFE1012061490864DBE1D6
:1033D0005E48007811280FD15D48406CB0F55C7FE5
:1033E00005D25B48406C0A3059494864CCE14FF43F
:1033F0008C7157484164C7E15448007812280FD1B6
:103400005348806CB0F55C7F05D25148806C401DFC
:103410004F498864B8E14FF48C714D488164B3E141
:103420004A48007813280DD14948C06C582805D265
:103430004748C06C401C4649C864A5E10121444886
:10344000C164A1E14148007814280DD14048006DC5
:10345000582805D23E48006D401C3D49086593E15F
:1034600001203B4908658FE13848007815280FD1C5
:103470003748406DB0F55C7F05D23548406D0A3065
:103480003349486580E14FF48C71314841657BE1F7
:103490002E48007816280FD12D48806DB0F55C7F3E
:1034A00005D22B48806D401D294988656CE14FF499
:1034B0008C712748816567E12448007817280DD171
:1034C0002348C06D582805D22148C06D401C2049B2
:1034D000C86559E101211E48C16555E11B480078C6
:1034E00018280DD11A48006E582805D21848006EC9
:1034F000401C1749086647E101201549086643E169
:103500001248007819280FD11148406EB0F55C7F41
:1035100005D20F48406E0A300D49486634E14FF439
:103520008C710B4841662FE1084800781A2816D1A3
:103530000748806EB0F55C7F0CD20548806E401D58
:103540000349886620E10000A6000020A5000020B5
:10355000200400204FF48C71FE48816614E1FE487F
:1035600000781B280DD1FB48C06E582805D2F948B9
:10357000C06E401CF749C86606E10121F548C166E6
:1035800002E1F54800781C280DD1F248006F582858
:1035900005D2F048006F401CEE490867F4E00120B6
:1035A000EC490867F0E0EC4800781D280FD1E948A5
:1035B000406FB0F55C7F05D2E648406F0A30E549C0
:1035C0004867E1E04FF48C71E2484167DCE0E24893
:1035D00000781E280FD1DF48806FB0F55C7F05D2E0
:1035E000DC48806F401DDB498867CDE04FF48C716B
:1035F000D8488167C8E0D84800781F280DD1D54841
:10360000C06F582805D2D348C06F401CD149C86745
:10361000BAE00121CF48C167B6E0CF480078202842
:1036200011D1CC48D0F88000582807D2C948D0F82A
:103630008000401CC749C1F88000A5E00120C549B1
:10364000C1F88000A0E0C4480078212813D1C14807
:10365000D0F88400B0F55C7F07D2BE48D0F8840073
:103660000A30BC49C1F884008EE04FF48C71B9482F
:10367000C0F8841088E0B8480078222813D1B548F3
:10368000D0F88800B0F55C7F07D2B248D0F8880047
:10369000401DB049C1F8880076E04FF48C71AD4808
:1036A000C0F8881070E0AC480078232811D1A948F0
:1036B000D0F88C00582807D2A648D0F88C00401CBF
:1036C000A449C1F88C005FE00121A248C0F88C1029
:1036D0005AE0A1480078242811D19E48D0F89000E3
:1036E000582807D29B48D0F89000401C9949C1F84F
:1036F000900049E001209749C1F8900044E09648C5
:103700000078252813D19348D0F89400B0F55C7F59
:1037100007D29048D0F894000A308E49C1F894003E
:1037200032E04FF48C718B48C0F894102CE08A483A
:103730000078262813D18748D0F89800B0F55C7F30
:1037400007D28448D0F89800401D8249C1F89800FB
:103750001AE04FF48C717F48C0F8981014E07E484E
:103760000078272810D17B48D0F89C00582807D231
:103770007848D0F89C00401C7649C1F89C0003E0D2
:1037800001217448C0F89C10704710B57348007848
:10379000032856D170480078401C6F490870704863
:1037A0000078032806D108460078052801DD0120AD
:1037B0000870EFE06A48007880B96748007804280C
:1037C00002DD01206449087063480078401E6549A5
:1037D000087008460078FEF732FEDBE060480078AB
:1037E00001281DD15C480078272802DD27205A498E
:1037F00008705C4800780028DBD157490878C11769
:1038000000EB9171584A1278B2EBA10FD1DA52490C
:103810000878C11700EB91718910534A1170B9E013
:103820004F4800780228C4D14B480078022802DDB6
:1038300001204949087048480078401E4B490870EB
:10384000A8E0464800780028B3D14948007888B3FA
:10385000484800781328ACDA46480078401C4549AF
:103860000870087800EBD0714910A0EB410139B91C
:103870004049087800EBD07149103F4A117008E0C8
:103880003C490978481E00EBD071C1F347013A4A20
:103890001170002039490860102039490860374804
:1038A0000068C0B23749086005F0C4F8042003F08E
:1038B000A5FC6FE0FFE72F49087800EBD0714910B5
:1038C000A0EB410139B92B49087800EBD0714910C0
:1038D000294A117008E027490978481E00EBD07189
:1038E000C1F34701244A1170234800781E49097822
:1038F00088424FDC1F48007813284BDA1D480078B7
:10390000401C1C49087000201C49086019490878AF
:1039100000EBD0714910A0EB410139B91549087885
:1039200000EBD0714910144A117008E01149097870
:10393000481E00EBD071C1F347010F4A11700020FF
:103940000E49086010200E4908600C480068C0B29B
:103950000C4919E020040020A500002048000020A8
:10396000A60000209F000020A2000020A800002048
:103970009E000020A0000020A10000201C000020CC
:10398000EC000020F0000020086005F053F804204F
:1039900003F034FC10BD10B5FE480078032843D175
:1039A000FD480078002804DDFB480078401EFA49F5
:1039B0000870FA480078032807D1F74800780028F3
:1039C00067D10520F449087063E0F448007878B9BD
:1039D000F148007810B90420EF490870EE480078EB
:1039E000401EEF49087008460078FEF728FD50E0B9
:1039F000EA480078012807D1E7480078002848D134
:103A00000120E549087044E0E4480078022840D1EC
:103A1000E148007810B90220DF490870DE480078DC
:103A2000401EE049087034E0DA48007888BBDE4880
:103A30000078012804DDDC480078401EDA4908706F
:103A4000D949087800EBD0714910A0EB410139B990
:103A5000D549087800EBD0714910D44A117008E0BC
:103A6000D1490978481E00EBD071C1F34701CF4A14
:103A700011700020CE4908601020CE490860CC4863
:103A80000068C0B2CC49086004F0D4FF052003F000
:103A9000B5FB10BD2DE9F0410646202E7ED015DC89
:103AA000112E80F0E387DFE816F0E10726005401CD
:103AB000E107C502E107E1074604F502E107E10776
:103AC000E1077907E1071A0425072903A12E66D02B
:103AD0000ADC302E00F09687402E7DD0702E7CD0F0
:103AE000802E40F0C387F9E3AA2E77D0E02E76D05F
:103AF000F02EF6D1EEE0A748007805281DD1AF489A
:103B00000078A44908701220AA490860AC480068EF
:103B1000AC49086008460068092802D808460068D1
:103B200010B90220A7490860A6480068A2490860A9
:103B300004F080FF052003F061FB96480078072819
:103B400013D19E4800789349087014209949086061
:103B50009D4800689D4908600846006896490860CD
:103B600004F068FF052003F049FB8A480078082824
:103B700013D1924800788749087016208D49086053
:103B80009348006893490860084600688A490860BD
:103B900004F050FF052003F031FB01E00BE3FDE3EF
:103BA0008D48406940F040008B4948617948007871
:103BB00001287DD0012089490870894800780128B2
:103BC00011D17448007803280DD08648006840F46D
:103BD00000708449086003E0C4E38CE2FEE387E2FE
:103BE0002A2005F05AFC01206A4908707E490870B5
:103BF0001820704908607C4801786B48007861F3B0
:103C0000DF106D49086008460068000208607748C8
:103C10000068C0B2096808446749086004F00AFFF8
:103C2000052003F0EBFA6049087800EBD0714910E9
:103C3000A0EB410139B95C49087800EBD07149101B
:103C40005A4A117008E058490978481E00EBD071B3
:103C5000C1F34701554A1170002065490870654954
:103C600008706549087065490870654908704F48D3
:103C70000078012817DB4D480078401E614901EBB0
:103C80000010406800EB800040005F490860474832
:103C90000078401E5B4901EB0010806800EB80005B
:103CA00040005A490860FCF792FFFCF746FE00E02E
:103CB0000FE000203F49086004F0CDFE3E48008838
:103CC000000A5349087008460078092801DB0020E3
:103CD000087002E32F480078D0B300202D49087007
:103CE0003F48007801280AD13E48001D006840F492
:103CF00000703C49091D08602B2005F0CEFB002018
:103D00003949087018202B4908603748017826483F
:103D1000007861F3DF102849086008460068000257
:103D2000086032480068C0B2096808442249086047
:103D300004F080FE052003F061FA2A48001D0068A7
:103D400040F480702749091D08600020314908703F
:103D5000BFE71048007800287ED001287DD00328D6
:103D60007CD12D48007898B90C480078401C0B494C
:103D7000087008460078032801DD00200870074815
:103D8000007830B906480078401C034908708EE07E
:103D900052E043E048000020A5000020A6000020DB
:103DA0009F000020A8000020A0000020A10000200B
:103DB0001C000020EC000020F00000204B00002040
:103DC000C4010020C0010020CC010020C801002057
:103DD000D4010020D0010020001001401B01002070
:103DE0003F010020100801405F0100201400002066
:103DF0000A0000200B0000202400002010000020FA
:103E00001100002080030020380000203C0000202A
:103E1000380100201801002049000020FE480078E9
:103E2000022805D1FD480078401CFD4908703EE09D
:103E30000120FB4908703AE0FA480078012836D1A1
:103E4000F5480078401CF4490870084600780328BB
:103E500001DD0120087002E02AE080E0E7E0EE48A2
:103E60000078022805D1ED480078401CEC49087024
:103E70001DE0E9480078012816D1EB49087800EBED
:103E8000D0714910A0EB410131B9E84800788006B3
:103E9000000EE34908700AE0E4480078032101EBD2
:103EA0008000DF49087002E00120DD490870BFE0B2
:103EB000DF480078DB4908700320DD490870DD48E1
:103EC0000078DD490870DD480078D4490870DC4886
:103ED0000078DC490870002421E0DB4800EB041086
:103EE0000068DA4901EB04110860D74800EB0410C0
:103EF0004068D64901EB04114860D34800EB041038
:103F00008068D24901EB04118860CF4800EB0410AF
:103F1000C068CE4901EB0411C860601CC4B20A2C11
:103F2000DBDB002407E0CA4850F82400C94941F807
:103F30002400601CC4B2052CF5DBC748006940F0C2
:103F40004000C54908612320C44908700020B249D7
:103F50000870B9480078401CB149087068E0B4485E
:103F60000078B04908700320B1490870B148007862
:103F7000B1490870B1480078A8490870B048007885
:103F8000B0490870002421E0AF4800EB041000683D
:103F9000AE4901EB04110860AB4800EB0410406827
:103FA000AA4901EB04114860A74800EB041080689F
:103FB000A64901EB04118860A34800EB0410C06817
:103FC000A24901EB0411C860601CC4B20A2CDBDBFF
:103FD000002407E09E4850F824009E4941F8240040
:103FE000601CC4B2052CF5DB9B48006940F0400022
:103FF0009949086123209949087001208649087071
:104000008949087800EBD0714910A0EB410131B922
:10401000864800788006000E8149087006E08348D3
:104020000078032101EB80007D49087000E000BFAB
:1040300000BF4EE6FFF7AFFC7D480078042828D18A
:1040400087480078002805DD85480078401E8449AF
:10405000087002E009208249087081480078400019
:10406000801C8049086004F0F6FC7F4800787F4996
:10407000087008460078C82801DD0020087001207B
:104080007B49086008460068C1B275480078FEF7B1
:104090007CF91EE6FFF779FB65480078042826D1F5
:1040A0006F480078401C6E490870084600780A285E
:1040B00001DB002008706A4800784000801C6949D4
:1040C000086004F0C8FC6848007868490870084631
:1040D0000078C82801DD00200870012064490860CC
:1040E00008460068C1B25E480078FEF74EF9F0E578
:1040F000FFF751FCEDE5FFF748FBEAE54C48007897
:1041000090B95C480078401C5A490870084600780D
:10411000332801DD0020087057480078012803D1BA
:104120005448007805F0B9F941480078042811D1C5
:104130004F4800684D490978884204D24C480068CD
:10414000401C4B4908604A480068C1B244480078A6
:10415000FEF71BF9FEF798FF3548007805280AD1CD
:1041600046480068401C4549086008460068092820
:1041700001D9012008602E48007807280BD140485B
:104180000068401C3E49086008460068B0F57A7F28
:1041900001D3012008602648007808280AD1394850
:1041A0000068401C3749086008460068102801D99B
:1041B000012008608DE51E480078A0B92D480078E0
:1041C000002805DD2B480078401E2A49087002E0CF
:1041D00033202849087028480078012803D1254851
:1041E000007805F05AF91248007804280FD12048C9
:1041F0000068012804D91E480068401E1C49086058
:104200001B480068C1B216480078FEF7BEF8FEF7FA
:10421000BCFB0748007837E0A6000020A80000207B
:10422000A500002049000020A0000020A1000020DF
:10423000480000209E0000209F000020A7000020D2
:10424000A3000020A2000020800300202004002002
:104250001403002028030020001001404A00002021
:1042600039010020EC000020F000002006000020B2
:1042700018000020510100203F010020C40100204F
:10428000CC010020D4010020052809D1FC48006899
:10429000401EFB4908600846006808B9092008600C
:1042A000F848007807280AD1F7480068401EF64908
:1042B00008600846006810B940F2E7300860F1482D
:1042C0000078082809D1F1480068401EEF490860CD
:1042D0000846006808B910200860C8E3EEE2E94823
:1042E0000078042812D1EA480168EA480078401DA5
:1042F000814204D2E6480068401DE5490860E44870
:104300000068C1B2E4480078FEF73FF8FEF7BCFE53
:10431000DC48007807280DD1DB4800680A30DA490C
:1043200008600846006840F2E731884202D3012065
:10433000D54908609BE3D348007804280FD1D448BE
:104340000068052804D3D2480068401FD04908609F
:10435000CF480068C1B2D0480078FEF716F8FEF7E3
:1043600014FB84E3CD48007820B30020CB490870CB
:10437000CB4908700620CB4908700020CA49087054
:10438000C6490870C948006840F00400C749086081
:10439000C748006840F48070C54900E0E1E2086069
:1043A0000120C4490870C4490870C449087000203D
:1043B000C3490870C348007810B30020C149087091
:1043C0000620B84908700020B7490870BD49087038
:1043D000B648006840F00400B44900E033E20860E9
:1043E000B348006840F48070B14908600120B249C8
:1043F0000870B2490870AF4908700020B0490870D1
:10440000B1480078012820D10020AF490870AF4999
:104410000870AF490870AF490870A3490870A348F5
:10442000006840F00400A1490860A148006840F419
:1044300080709F49086001209E4908709E4908705D
:104440009E49087000209E4908708E480078032815
:1044500073D1A14800788B49087000209F490870EB
:104460009F48406940F040009D4948619D48007860
:104470009D490978884217D09B480078994908706F
:1044800000209A4908609A48007800029949097802
:1044900000EB01109449097808449749086004F03A
:1044A000C9FA052002F0AAFE9448007891490978DB
:1044B00088421BD08F4800789049087008460078E1
:1044C0008F490870002089490860894800780002F7
:1044D0008849097800EB0110834909780844864926
:1044E000086004F0A7FA052002F088FE00250024E9
:1044F00032E0844800EB04100068834901EB0411AA
:104500000968884201D0012528E07E4800EB0410AC
:1045100040687D4901EB04114968884201D00125BA
:104520001CE0784800EB04108068774901EB041127
:104530008968884202D0012510E026E1714800EB2D
:104540000410C068704901EB0411C968884201D0A9
:10455000012503E0601CC4B20A2CCADB00BF012D98
:104560007ED100275C480078012836D1654867492C
:10457000097800EB011000686349644A127801EB86
:1045800002110968884209D06149087800EBD071AE
:104590004910A0EB410101BB01271EE059485B49CE
:1045A000097800EB011041685748584A127800EB2F
:1045B00002104068814201D001270EE05148534962
:1045C000097800EB011080684F49504A127801EBDE
:1045D00002118968884200D00127002421E04A485E
:1045E00000EB04100068474901EB041108604648DD
:1045F00000EB04104068434901EB04114860424855
:1046000000EB041080683F4901EB041188603E48CC
:1046100000EB0410C0683B4901EB0411C860601C4A
:10462000C4B20A2CDBDB30480078FEF742F9394887
:104630000078E0B918202D490860374801783448DF
:10464000007861F3DF102C4908600846006800021A
:10465000086032480068C0B209680844264900E092
:104660000BE0086004F0E6F9052002F0C7FD012F19
:1046700003D1FCF7ACFAFCF760F9002500245CE0FC
:10468000C401002048000020CC010020D4010020FB
:10469000180000200600002039010020AC00002096
:1046A000AF000020B00000204201002010140140A3
:1046B00010080140180100203E0100201B010020CD
:1046C00065010020AE000020AB0000206401002046
:1046D000D5000020D600002049000020A5000020C1
:1046E000001001409E0000209F000020EC000020F0
:1046F00038010020A8000020F0000020A7000020C2
:10470000B70000208003002020040020A10000202A
:10471000A00000203A0100205F01002014000020CA
:10472000FE4850F82400FE4951F82410884200D178
:1047300001E0012503E0601CC4B2052CF0DB00BFE2
:10474000012D0ED1002407E0F54850F82400F3496C
:1047500041F82400601CC4B2052CF5DBEF4804F0DE
:104760004FFDF0480078D8B9EF480078EF4908705D
:10477000EF4800780978884212DCEE48007801287A
:104780000ED10020EB4908700AE0EB4800780428BD
:1047900006D1EA480078E84908700020E849087026
:1047A000E548007805281DD1E6480078E249087000
:1047B0001220E5490860E5480068E54908600846B8
:1047C0000068E4490860E2480068092802D8E04827
:1047D000006810B90220DE49086004F02BF90420BB
:1047E00002F00CFDD4480078072813D1D548007892
:1047F000D14908701420D4490860D7480068D749C7
:10480000086008460068D349086004F013F90520E1
:1048100002F0F4FCC8480078082813D1C948007891
:10482000C54908701620C8490860CD480068CD49C0
:10483000086008460068C749086004F0FBF80520D6
:1048400002F0DCFC13E1FDF7AFFEC7480078FDF78E
:10485000F6FD1820BC49086004F0FDF8BD4800785A
:10486000C249086008460068C82801D900200860CD
:10487000B8480088C0F30620BD4908700846007893
:10488000132801DD00200870B949087800EBD071C9
:104890004910A0EB410139B9B549087800EBD07156
:1048A0004910A34A117008E0B1490978481E00EB8D
:1048B000D071C1F347019E4A1170D8E0AD4800782D
:1048C000AD49097888420BD1AB480078C043A9496B
:1048D00008700420A94908700120A949087008E05F
:1048E000A5480078A34908700020A4490870A4498D
:1048F0000870BCE09048007818B18F480078012813
:104900002ED18D4800788D49087004208A4908709E
:1049100023209C49087004209B4908700120884985
:1049200008709A4908609A4800789A490870974830
:104930000068C1B297480078FDF727FD95480078D8
:104940004000801C8049086004F085F881480078A8
:104950009149087008460078C82801DD00200870D9
:1049600085E075480078082807D073480078072844
:1049700003D071480078052801D1BDE8F0816E4868
:1049800000787049087005206B490870704800680D
:104990006E49086019207B49087068E06648007815
:1049A000082807D064480078072803D062480078B8
:1049B000052800D1E1E760480078072813D1614855
:1049C00000785D49087014205F49086062480068FB
:1049D00062490860084600685E49086004F02AF8E9
:1049E000052002F00BFC5448007856490870072057
:1049F00051490870594800685749086019206149B1
:104A0000087034E04C480078082807D04A480078FD
:104A1000072803D048480078052800D1ADE746486C
:104A20000078082813D147480078434908701620B9
:104A3000454908604A4800684A49086008460068D5
:104A40004449086003F0F6FF052002F0D7FB3A481E
:104A500000783C49087008203749087041480068D0
:104A60003F49086019204749087000E000BF00BFB7
:104A700000BF82E702F056F902F00BFB02F08DF95D
:104A800042F2283005F017FD012005F008FD012055
:104A900005F0F3FC02F018FB4048006840F0040009
:104AA0003E4908603E48006840F480703C49086018
:104AB00000203C4908703C4908703C4908703C495A
:104AC00008703C4908703C49087001203B49086067
:104AD00078203B49086001203A49087000203A4993
:104AE00008703A4908603A4908701220164908606F
:104AF00003F0B1FF042002F081FB1648006814495E
:104B0000086008460068092802D80846006810B9FD
:104B100002200F4908600E4800685BE01403002083
:104B2000280300209F000020A2000020A3000020F6
:104B3000A1000020A400002048000020490000201F
:104B4000A50000204B000020EC000020C401002044
:104B5000C0010020F0000020CC010020C80100208E
:104B6000D4010020D00100209E000020140000206D
:104B7000A0000020B7000020A7000020B8000020FF
:104B8000B90000204A000020A600002018000020E4
:104B900038010020390100200600002014140140D3
:104BA0001008014046010020550200205602002056
:104BB0005702002058020020590200203002002035
:104BC00034020020190100204801002020020020AA
:104BD0000C020020FE4908601420FE49086003F022
:104BE0003AFF052002F00AFBFB480088C0F30900E9
:104BF000FA49086008460068B0F57A7F01D30120C1
:104C00000860F6480068F64908601620F149086017
:104C100003F021FF052002F0F1FAEF48007800F0E0
:104C20000F00F0490860084600680C2801D90120EF
:104C30000860EC480068EC490860EC48406940F4C2
:104C40000050EA4948610846406940F48060486184
:104C50000120E74908703C20E649086002F084FC26
:104C600004F084FA04F0F0FA002405E00020E249A0
:104C700041F82400601CC4B2042CF7DB002404E0DB
:104C8000DD4804F072F8601CC4B2142CF8DB00207C
:104C9000DA490860DA490860DA490860DA490860E8
:104CA000DA490860002506E0D948405DA84200D0F6
:104CB00003E0681CC5B2052DF6DB00BF052D6EDADA
:104CC000002503E0D2484555681CC5B2052DF9DB27
:104CD0000020C0490860CF490860CF490870CF491B
:104CE0000870CF49087003F0B6FEBB480088000A80
:104CF000CC49087008460078092801DB00200870BC
:104D0000B548007800F00F00C749087008460078E1
:104D1000032801DD01200870AF480078C0F30310BC
:104D2000C249087008460078012801DD012008709A
:104D3000BE480078BE4908700020BE490870BE49D0
:104D40000870BE490870BE490870BE49087001204D
:104D5000BD49087008460078BC4908700020BC496D
:104D60000870002411E04FF48061BA4805F054F94E
:104D7000012805D1B6480078401CB549087002E00A
:104D80000020B3490870601CC4B20A2CEBDBB048A9
:104D90000078052804DD0120AB49087007E017E220
:104DA000AB480078032802DA0120A74908700020E8
:104DB000A94908709C480078FDF741FB002421E0D8
:104DC000A64800EB04100068A54901EB0411086037
:104DD000A24800EB04104068A14901EB04114860AF
:104DE0009E4800EB041080689D4901EB0411886027
:104DF0009A4800EB0410C068994901EB0411C8609F
:104E0000601CC4B20A2CDBDB93480078012826D151
:104E1000002422E00020924901EB041108608F4930
:104E200001EB041108608E4901EB041148608B49C5
:104E300001EB041148608A4901EB0411886087493D
:104E400001EB04118860864901EB0411C8608349B5
:104E500001EB0411C860601CC4B20A2CDADB7A488A
:104E60000078012808D12E2004F017FB5F48006964
:104E700040F400705D49086100207A4908707A4961
:104E800008707A4908707A4908707A4908707A4936
:104E900008607A4908607A4908707A4908707A4946
:104EA00008707A4908707A4908707A4908707A4916
:104EB00008707A4908707A4908707A4908707A4906
:104EC00008707A4908707A4908707A4908607A4906
:104ED00008607A4908607A4908607A4908607A4926
:104EE00008607A4908607A4908607A4908704FF486
:104EF000C8707949086000207849087078490870BE
:104F000078490870784908700520784908700020B1
:104F100077490870774908707749087077490870B1
:104F200077490870774908607749086077490870C1
:104F30007749087077490870774908707749087091
:104F40007749087077490870774908707749087081
:104F50007749087077490870774908707749087071
:104F600077490870774908700120774908707820E0
:104F700076490860764908600120764908702C4817
:104F8000007801280ED11C484068734908601A480F
:104F9000806872490860184840687149086016487E
:104FA000806848602248007870B91348C0686A4930
:104FB000086011480068694908600F48C06868497E
:104FC00008600D4800684860012066490870CBE021
:104FD000C4010020EC000020F0000020C8010020E7
:104FE000CC010020D0010020D4010020001001409D
:104FF0002A010020A801002098020020A40100201E
:10500000E8010020EC010020F0010020F401002064
:1050100000000020E4000020650100204201002083
:1050200007000020380100209E000020A70000207B
:10503000B7000020A5000020A6000020A40000204A
:10504000A3000020A20000203F010020400100201A
:1050500041010020000801407001002020040020D0
:10506000800300204A0000201000002011000020D2
:105070000A0000200B000020140000201C0000206B
:10508000240000204A010020490100206001002086
:10509000610100206201002063010020180100204E
:1050A0001A0100201B0100201C0100202901002002
:1050B000A90000205C0000206000002064000020A7
:1050C000680000206C0000207000002074000020A8
:1050D000780000206401002084000020AB00002044
:1050E000AC000020AE000020AF000020B000002087
:1050F000B1000020B3000020B4000020B500002063
:10510000B6000020380000203C00002053010020A1
:1051100054010020550100205601002057010020B5
:1051200058010020590100205A0100205B01002095
:105130005C0100205D0100205E0100203D01002097
:105140006701002068010020450100209000002038
:1051500094000020D8000020280000202C0000200F
:10516000B80200204E010020FE4908701E20FE49B2
:1051700008700120FD490860032102F03BF903217A
:10518000022002F037F90321042002F033F9032151
:10519000082002F02FF90321402002F02BF903210F
:1051A000202002F027F90321102002F023F9032127
:1051B000802002F01FF9002404E0322002F01EF8E3
:1051C000601CC4B20A2CF8DB0020E949087032E008
:1051D000E8480078012806D1E748006840F40070EC
:1051E000E549086009E0E3480078032805D1E34871
:1051F000006940F04000E1490861E148007850B1A1
:10520000E048006840F00400DE4908600120DC4905
:105210000870DD490870DD48007860B1DA48007830
:10522000012808D1D448006840F48070D249086051
:105230000120D6490870D048006840F01000CE49DF
:105240000860D348006840F00800D1490860012098
:10525000D04908704FF42F70CF4908600020CF4923
:105260000860CF490860CF490860CF490870CF492E
:105270000870CF490870002405E00020CD4941F8AE
:105280002400601CC4B2082CF7DBCB4803F09CFF61
:105290000020CA4908701820C949086003F0DBFBE8
:1052A000C8480078C8490860C6480088C0F3C030C4
:1052B000C6490870C4480068C82802D90020C249FD
:1052C0000860C0480088C0F30620C149087008463D
:1052D0000078132801DD00200870BD49087800EB34
:1052E000D0714910A0EB410139B9B949087800EBF8
:1052F000D0714910B74A117008E0B5490978481EC5
:1053000000EBD071C1F34701B24A1170AD4800887B
:10531000C0F3C030AD49087008460078012801DDAF
:10532000002008701020A649086003F094FB0320B9
:1053300001F064FFA3480078A249086008460068AD
:10534000282803D208460068A3490860A0490878C5
:1053500000EBD0714910A0EB4101F1B19F499D4A8A
:10536000127801EB021109689B4A1268914214D924
:105370009A489849097800EB01100068964908603E
:1053800010208F49086094480068C0B28D490860B9
:1053900003F050FB042001F031FF8C480078012815
:1053A0004ED17449087000208D4908708D480078EE
:1053B000012808D17048006840F400706E49086008
:1053C0002A2004F06AF801208049087000208649EC
:1053D00008708649087086490870864908708649B1
:1053E00008707C480078012817DB7A480078401E56
:1053F0007A4901EB0010406800EB800040007F49D3
:10540000086074480078401E744901EB0010806801
:1054100000EB800040007A490860FBF7D8FBFBF7FF
:105420008CFA0120564908705648006840F0040084
:10543000544908600120554908705349087004E038
:1054400000204C4908706F49087005206E490870AB
:1054500000206E49087012205949086003F0FBFAD9
:10546000052001F0CBFE57480068694908600846EE
:105470000068092802D80846006810B9022064496B
:10548000086063480068634908604FF4C870624967
:105490000860B420614908604FF487706049086073
:1054A000A0206049086000205F4908605F490878D3
:1054B00004F004FA04F0DAF84FF4FA7001F09EFEFA
:1054C00001205B49087001F083B85A480078012830
:1054D00046D159480078012842D0544800785749AD
:1054E000087052480068F02101EA101040F00100F5
:1054F000524948705248007800F01F00334909783B
:1055000040EAC1104F49097840EA41104B49887080
:105510004D480078012803D100204C49086003E081
:105520004FF48040494908604948007818B14FF469
:105530000040464908604748007818B14FF44040A1
:105540004249086044480068C0F309003F4909889F
:1055500008433A4988800D48007810B900207DE062
:1055600061E17EE0D00000204B010020E40100203A
:105570003A010020480000201008014000100140BE
:105580001B010020101401403E01002018010020E2
:10559000140C0140290100203401002024010020C6
:1055A000CC000020C80000201C0100204201002087
:1055B00065010020B80200201403002044010020EF
:1055C000EC000020F0000020140000205F0100200B
:1055D000A0000020A10000201C000020800300206B
:1055E000490000203F0100200A0000200B0000209D
:1055F00024000020100000201100002038000020AE
:105600003C0000207101002072010020D700002022
:10561000C0010020C4010020840000208800002078
:1056200050000020540000200C000020C801002081
:105630000C020020FF0100204E0100204C0300203E
:10564000D00100209E000020B100002004020020B4
:10565000AE000020AC00002028000020FE490860B9
:1056600003E04FF48040FC490860FC480068C0F348
:105670000900F94909880843F949C880F9480068D0
:105680000A21B0FBF1F0C0F30900F5490881F648A2
:1056900000680A21B0FBF1F0C0F30900F04948812D
:1056A000F248007800F03F01F148006961F39F2063
:1056B000EB498881EF4800688873EF4800686428E8
:1056C00009D3ED480068B0F5AF7F04D2EA4800681E
:1056D0006438C87302E00020E149C873E0480078EC
:1056E000DF4949780844DE4989780844DC4909796A
:1056F0000844DB49898800EB2120D949897908448D
:10570000D749C98800EB2120D549097A0844D449F2
:10571000098900EB2120D249897A0844D049498976
:1057200000EB2120CE49097B0844CD49898900EB53
:105730002120CB49897B0844C949C97B0844C0431F
:10574000401CC749087408460078CC490870C44812
:1057500040784870C24880788870C14880880012BC
:10576000C870BF4800790871BD48C08800124871F0
:10577000BB4880798871BA4800890012C871B8485E
:10578000007A0872B648408900124872B448807A9C
:105790008872B34880890012C872B148007B0873D0
:1057A000AF48807B4873AE48C07B8873084600785A
:1057B00049780844B14989780844B049C97808440F
:1057C000AE4909790844AD4949790844AB4989791A
:1057D0000844AA49C9790844A849097A0844A7494C
:1057E000497A0844A549897A0844A449C97A0844F1
:1057F000A249097B0844A149497B08449F49897B08
:1058000008449F490860084600789C49C8730846C8
:10581000C07BC043401CC8731021984804F08DF829
:1058200000209849087098480078012818D19748B6
:105830000078012805D19648006940F40070944929
:1058400008611E20934908701420934908709348FA
:105850000078FEF71FF90020904908708A49087007
:105860008F480078012805D100208D4908708D48A7
:1058700003F0AAFC8C48007801280AD181480078FE
:10588000012806D0FBF745FC01F07BFE002086498D
:1058900008708648007801287DD185480068002876
:1058A000FAD1844803F061FA50BB8348007800289D
:1058B00025D18148007828B901207F4908701B2034
:1058C00003F0EBFD7B4840687C49086079488068BC
:1058D000624908607748C06879490860754800687F
:1058E0007849086073484068774948607148806823
:1058F00088607048C068C8606E480068086093E0BF
:1059000000206D49087071480078012844D16E4824
:1059100040686D49896808446B49C96808446A4908
:105920000968084463494968401A62498968401A0D
:105930006049C968401A5F490968401A64490860AB
:1059400008460068502818DA0846006810F1500F21
:1059500013DD5848406859490860564880683F49F7
:1059600008605448C0685649086052480068554964
:1059700008603A480068574908604E4840685249F4
:1059800048604C48806888604A48C068C860494898
:105990000068086048E054E14C480078F0BB4A4891
:1059A00040684949896808444749C96808444649E4
:1059B000096808443F494968401A3E498968401AC5
:1059C0003C49C968401A3B490968401A4049086087
:1059D00008460068502818DA0846006810F1500F91
:1059E00013DD3448C06835490860324800681B49F7
:1059F000086030484068324908602E488068314964
:105A0000086016480068334908602A4840682E49F3
:105A10004860284880688860264800E004E0C06844
:105A2000C86024480068086022484068282857D980
:105A300020488068282853D91E48C06828284FD994
:105A40001C48006828284BD90020234908700120F1
:105A50002249087057E00000040200202C000020BA
:105A60004C030020380000203C000020A000002053
:105A7000B8020020140000205C0000205E0300201B
:105A800008020020FF0100204A0100203F01002001
:105A9000001001404B0100204A0000204901002075
:105AA0004D01002014030020D00000204E010020F2
:105AB00020020020980200204F0100202800002032
:105AC0003000002034000020A8020020A7000020A1
:105AD00020010020C0000020030200204601002019
